S00D000057617463682E7372656320
S11300000C942A000C9447000C9447000C9447006D
S11300100C9447000C9447000C9447000C94470040
S11300200C9447000C9447000C94CD000C944700AA
S11300300C9447000C9447000C9447000C94470020
S11300400C9447000C9447000C9447000C94470010
S11300500C94470011241FBECFE5D8E0DEBFCDBF0E
S113006010E0A0E6B0E0ECEDF3E002C005900D92E4
S1130070AA36B107D9F720E0AAE6B0E001C01D9284
S1130080AC37B207E1F70E949B010C94EC010C948D
S1130090000090916A00992331F090916C009111C5
S11300A004C071E003C070E001C072E0982F905367
S11300B09A30F8F441155105F1F090916E009230A8
S11300C0E0F4E82FF0E021812F672183272F30E02F
S11300D0220F331FF901E659FF4F8083F901E559D7
S11300E0FF4F6083FA0170839F5F90936E0081E0FD
S11300F0089580E0089580E0089580E008958230B6
S113010008F043C06A3008F042C090E0FC01EE0FF2
S1130110FF1FE659FF4F20812223D9F1FC01EE0F86
S1130120FF1FE559FF4F30813130B1F4E22FF0E089
S1130130228120782283FC01EE0FFF1FE659FF4F36
S1130140E081F0E09281A62FB0E0A05ABF4F8C91DD
S1130150892B828381E0089531111DC0E22FF0E0E4
S113016022812F672283FC01EE0FFF1FE659FF4F08
S1130170E081F0E09281A62FB0E0A05ABF4F8C91AD
S113018080958923828381E0089580E0089580E04A
S1130190089580E0089580E00895AFE6B0E025E793
S11301A030E0ED91FD91309729F0828193810197A0
S11301B093838283A217B307A1F788B7816088BFAE
S11301C012BE8EE48CBF7894089570937600609389
S11301D0750083E083BF12BE8EE48CBF82E089BFCA
S11301E088B7816088BF789480E00895CF93FC013C
S11301F0F894C0917700C330A8F5448336832583EF
S11302002091750030917600CB01B9010E94C401A0
S11302106083718362837383CF5FC093770080911F
S11302206F0090917000892B91F0809171009091F2
S11302307200892B49F08091730090917400892B8E
S113024099F482E090E005C081E090E002C080E093
S113025090E0DC01AA0FBB1FA159BF4FED93FC93A3
S113026080E003C082E001C080E07894CF910895DB
S1130270EF92FF920F931F93CF93DF93F894CFE6FF
S1130280D0E005E710E0E881F981309711F182812F
S1130290938118161906ECF00580F681E02D80E0B4
S11302A090E00995E881F981848181110AC08091E7
S11302B07700815080937700168215821982188204
S11302C008C02281338180819181820F931F93839F
S11302D082832296C017D107B1F6789480E0DF912B
S11302E0CF911F910F91FF90EF900895CF93DF93DB
S11302F08091780090917900CAE0D0E0BE010E941C
S1130300D801682F80917B000E947F008091780043
S1130310909179009C012F5F3F4F30937900209397
S11303207800BE010E94D80180917A000E947F006B
S1130330DF91CF910895CF93DF93CDB7DEB72797A1
S11303400FB6F894DEBF0FBECDBF40E050E065E0CD
S113035070E080E00E94E5004BE750E061E083E359
S11303600E9449004AE750E061E080E30E944900AE
S113037026E731E041E068EE73E0CE0101960E9489
S1130380F6000E943801FDCFAA1BBB1B51E107C038
S1130390AA1FBB1FA617B70710F0A61BB70B881F11
S11303A0991F5A95A9F780959095BC01CD010895A0
S11303B097FB072E16F4009407D077FD09D00E940E
S11303C0C40107FC05D03EF4909581959F4F089594
S10F03D0709561957F4F0895F894FFCF5D
S10D03DC3F065B4F666D7D077F6FDF
S9030000FC
