:100000000C942A000C9447000C9447000C94470071
:100010000C9447000C9447000C9447000C94470044
:100020000C9447000C9447000C94C4000C944700B7
:100030000C9447000C9447000C9447000C94470024
:100040000C9447000C9447000C9447000C94470014
:100050000C94470011241FBECFE5D8E0DEBFCDBF12
:1000600010E0A0E6B0E0E4E7F4E002C005900D92F5
:10007000AE36B107D9F720E0AEE6B0E001C01D9280
:10008000A438B207E1F70E94C9010C9438020C941D
:10009000000090916E00992391F090917000992347
:1000A00051F090917200992341F090917400911158
:1000B00008C023E007C021E005C022E003C020E023
:1000C00001C024E0982F90539A30D8F4411551057F
:1000D000D1F0909176009430C0F4E82FF0E03181B7
:1000E0003F673183E22FF0E0EE0FFF1FE259FF4F31
:1000F00080836183FA0120839F5F9093760081E083
:10010000089580E0089580E0089580E008958430A7
:1001100098F56A3098F590E0FC01EE0FFF1FE25968
:10012000FF4FE081EE2361F1DC01AA0FBB1FA25952
:10013000BF4F11968C91813071F4F0E0828180780C
:1001400082839281A62FB0E0AC59BF4F8C91892B4E
:10015000828381E00895811115C0F0E082818F676C
:1001600082839281A62FB0E0AC59BF4F8C918095CD
:100170008923828381E0089580E0089580E00895D6
:1001800080E0089580E00895A7E7B0E02DE730E033
:10019000ED91FD91309729F08281938101979383AE
:1001A0008283A217B307A1F788B7816088BF12BE08
:1001B0008EE48CBF7894089570937E0060937D00E8
:1001C00083E083BF12BE8EE48CBF82E089BF88B714
:1001D000816088BF789480E00895CF93FC01F89403
:1001E000C0917F00C330A8F54483368325832091D6
:1001F0007D0030917E00CB01B9010E941002608326
:10020000718362837383CF5FC0937F008091770097
:1002100090917800892B91F08091790090917A00EB
:10022000892B49F080917B0090917C00892B99F477
:1002300082E090E005C081E090E002C080E090E0C4
:10024000DC01AA0FBB1FA958BF4FED93FC9380E0C0
:1002500003C082E001C080E07894CF910895EF92CE
:10026000FF920F931F93CF93DF93F894C7E7D0E0EB
:100270000DE710E0E881F981309711F182819381D7
:1002800018161906ECF00580F681E02D80E090E06C
:100290000995E881F981848181110AC080917F00EC
:1002A000815080937F00168215821982188208C0BF
:1002B0002281338180819181820F931F9383828376
:1002C0002296C017D107B1F6789480E0DF91CF91E4
:1002D0001F910F91FF90EF900895CF93DF9380913E
:1002E000600090916100CAE0D0E0BE010E9424024B
:1002F000682F809183000E94870080916000909118
:1003000061009C012F5F3F4F30936100209360009C
:10031000BE010E942402809180000E948700DF912C
:10032000CF91089580916200909163006AE070E03F
:100330000E942402809182000E948700089580918B
:100340006200909163006AE070E00E942402682FCE
:10035000809181000E9487008091620090916300EB
:1003600043976CF0809160009091610001969093AA
:10037000610080936000109263001092620080918F
:1003800062009091630001969093630080936200F5
:100390000895CF93DF93CDB7DEB765970FB6F89486
:1003A000DEBF0FBECDBF40E050E065E070E080E012
:1003B0000E94DC0041E850E061E083E30E944900D4
:1003C00042E850E061E080E30E94490043E850E0E9
:1003D00061E089E30E94490040E850E061E086E383
:1003E0000E9449002FE931E041E064EF71E0CE0165
:1003F00001960E94ED0022E931E041E068E873E1F6
:10040000CE0108960E94ED002DE631E041E060E16A
:1004100077E2CE010F960E94ED000E942F01FDCFE2
:10042000AA1BBB1B51E107C0AA1FBB1FA617B7071A
:1004300010F0A61BB70B881F991F5A95A9F7809536
:100440009095BC01CD01089597FB072E16F40094FA
:1004500007D077FD09D00E94100207FC05D03EF4BA
:10046000909581959F4F0895709561957F4F089560
:04047000F894FFCF2E
:0E0474000A0001003F065B4F666D7D077F6F3B
:00000001FF
