:100000000C942A000C9447000C9447000C94470071
:100010000C9447000C9447000C9447000C94470044
:100020000C9447000C9447000C9447000C94470034
:100030000C9447000C9447000C9447000C94470024
:100040000C9447000C9447000C9447000C94470014
:100050000C94470011241FBECFE5D8E0DEBFCDBF12
:1000600010E0A0E6B0E0E0ECF2E002C005900D92F6
:10007000AA36B107D9F720E0AAE6B0E001C01D9288
:10008000AF36B207E1F70E9449000C945E010C9470
:100090000000CF93DF931F92CDB7DEB7AE014F5F65
:1000A0005F4F61E083E30E94680069E089810E94FC
:1000B0009E0065E089810E949E0089810E94EC007B
:1000C00089810E94290165E089810E949E00FFCFFD
:1000D00090916A00992331F090916C00911104C0C5
:1000E00071E003C070E001C072E0982F90539A3025
:1000F000F8F441155105F1F090916E009230E0F462
:10010000E82FF0E021812F672183272F30E0220F95
:10011000331FF901E659FF4F8083F901E559FF4F7D
:100120006083FA0170839F5F90936E0081E0089571
:1001300080E0089580E0089580E00895823008F01E
:1001400043C06A3008F042C090E0FC01EE0FFF1F90
:10015000E659FF4F20812223D9F1FC01EE0FFF1F4A
:10016000E559FF4F30813130B1F4E22FF0E02281C8
:1001700020782283FC01EE0FFF1FE659FF4FE0813C
:10018000F0E09281A62FB0E0A05ABF4F8C91892B4E
:10019000828381E0089531111DC0E22FF0E02281B9
:1001A0002F672283FC01EE0FFF1FE659FF4FE0810E
:1001B000F0E09281A62FB0E0A05ABF4F8C918095BD
:1001C0008923828381E0089580E0089580E0089586
:1001D00080E0089580E008958230A8F590E0FC0169
:1001E000EE0FFF1FE659FF4F2081222371F1FC0122
:1001F000EE0FFF1FE559FF4F3081313089F4E22FB8
:10020000F0E0228120782283FC01EE0FFF1FE659E7
:10021000FF4FE081F0E082818F63828381E0089567
:10022000311115C0E22FF0E022812F672283FC01FB
:10023000EE0FFF1FE659FF4FE081F0E08281807CE6
:10024000828381E0089580E0089580E0089580E051
:100250000895823068F590E0FC01EE0FFF1FE6592B
:10026000FF4F2081222331F1FC01EE0FFF1FE559E2
:10027000FF4F3081313069F4E22FF0E022812078A5
:100280002283FC01EE0FFF1FE659FF4F108281E031
:100290000895311111C0E22FF0E022812F672283EF
:1002A000FC01EE0FFF1FE659FF4F108281E0089519
:1002B00080E0089580E0089580E00895F894FFCFED
:0A02C0003F065B4F666D7D077F6F00
:00000001FF
