:100000000C942A000C943C000C943C000C943C0092
:100010000C943C000C943C000C943C000C943C0070
:100020000C943C000C943C000C9461000C943C003B
:100030000C943C000C943C000C943C000C943C0050
:100040000C943C000C943C000C943C000C943C0040
:100050000C943C0011241FBECFE5D8E0DEBFCDBF1D
:1000600020E0A0E6B0E001C01D92A736B207E1F79C
:100070000E9444000C94DE000C94000081E08ABBD6
:100080009BB389278BBB0895CF93DF93CDB7DEB7A2
:1000900027970FB6F894DEBF0FBECDBF40E050E00B
:1000A00065E070E080E00E946E002EE330E041E009
:1000B00064E670E0CE0101960E947A000E94A500DD
:1000C000FDCF809160009091610001969093610056
:1000D0008093600012BE8EE48CBF0895709363001D
:1000E0006093620083E083BF8EE48CBF82E089BFAF
:1000F00080E00895FC0180916400811122C0448356
:100100003683258380916000909161009183808384
:100110002091620030916300CB01B9010E94CA00B6
:100120007383628381E08093640080916500909185
:100130006600892B41F4F0936600E093650080E04F
:10014000089582E0089580E00895E0916500F091BF
:1001500066006281738180819181680F791F80912F
:100160006000909161000E94CA00892B89F405808B
:10017000F681E02D80E090E00995E0916500F09136
:1001800066008481811104C010926600109265009F
:1001900080E00895AA1BBB1B51E107C0AA1FBB1F2B
:1001A000A617B70710F0A61BB70B881F991F5A9503
:1001B000A9F780959095BC01CD010895F894FFCFE3
:00000001FF
