:1000000029C0000044C0000042C0000040C0000001
:100010000C9465113CC000003AC0000038C00000DC
:1000200036C0000034C000000C943C1130C0000009
:100030002EC000000C94790F2AC000000C948C0F85
:1000400026C0000024C0000022C0000020C0000024
:100050001EC0000011241FBECFE5D8E0DEBFCDBF1B
:1000600011E0A0E6B0E0ECE3F6E202C005900D92EC
:10007000A836B107D9F711E0A8E6B1E001C01D929A
:10008000A237B107E1F70E941E120C941C13B8CFDF
:10009000EF92FF920F931F937B018C0120E030E0E1
:1000A00040E05FE40E94290C88238CF0C801B7016E
:1000B00020E030E040E05FE40E94E20A0E94AE0CE3
:1000C0009B01AC01205030404040504806C0C80160
:1000D000B7010E94AE0C9B01AC01B901CA011F918E
:1000E0000F91FF90EF900895A4E0B0E0EAE7F0E010
:1000F0000C94751249015A016B017C01D501C401B0
:100100009C01AD01550F220B322FA901881599F4DE
:10011000991589F4AA1579F4BB1569F42C1559F4CD
:100120002D1549F42E1539F42F1529F4C501B40104
:100130000E94540CD0C09401A501B601C70100E291
:100140000E94FF0CC901A42FB52FB7FF07C0B095BF
:10015000A095909581959F4FAF4FBF4F803020E085
:10016000920721E0A20720E0B20780F48F3F9105BB
:10017000A105B10531F028F028E030E040E050E082
:1001800016C020E030E040E050E011C0803030E0A8
:10019000930730E0A30731E0B30728F028E130E00F
:1001A00040E050E004C020E130E040E050E060E298
:1001B000462E512C612C712C421A530A640A750A7E
:1001C00004C0B695A795979587952A95D2F7FC0117
:1001D000E859FF4F8081481A51086108710841149D
:1001E00051046104710429F460E070E080E09FED47
:1001F00072C081E290E0A0E0B0E084199509A60900
:10020000B70989839A83AB83BC8319819401A501C3
:10021000B601C701012F0E94FF0CC901DA012C01B0
:100220003D0180E290E0A981BA818A1B9B0BA50168
:10023000940104C0220F331F441F551F8A95D2F723
:10024000211531054105510541F081E090E0A0E024
:10025000B0E0482A592A6A2A7B2A29813A814B81AF
:100260005C81203231054105510559F40F2EF0E033
:10027000CF2EF0E0DF2EF0E8EF2EFFE4FF2EF02D82
:1002800022C089819A81AB81BC814F97A105B105BC
:1002900059F40F2EF0E0CF2EF0E0DF2EF0E0EF2E3D
:1002A000FFE4FF2EF02D0FC061E070E080E090E0F1
:1002B00004C0660F771F881F991F1A95D2F70E94F6
:1002C000540C6B017C01C301B2010E94540CA701C4
:1002D00096010E94340B2496E0E10C949112A2E75F
:1002E000B0E0E5E7F1E00C947312982E892E712EA0
:1002F00088E0FE013196DF01682E1D926A94E9F7CD
:1003000029833A834B835C836D837E839F829887A6
:10031000FE013996DF011D928A95E9F7A986BA8612
:10032000CB86DC86ED86FE860F87188B8D819E81BD
:10033000AF81B885B7FD07C0E1961CAE1DAE1EAEFD
:100340001FAEE19764C0219581E0121608F080E0AD
:10035000319591E0131608F090E0B32FB81B81E0BF
:100360003B1708F080E0982B419531E0141608F017
:1003700030E0A42FA91B81E04A1708F080E0382B59
:10038000519591E0151608F090E0F52FF31B81E0F0
:100390005F1708F080E0982B619531E0161608F0A1
:1003A00030E0E62FE91B81E06E1708F080E0382B83
:1003B000719541E0171608F040E0572F531B81E07C
:1003C000751708F080E0482B892D819591E018166B
:1003D00008F090E0682E641A462D31E0861508F08A
:1003E00030E0932B882D8195891B2983BA83AB83B9
:1003F000FC83ED835E834F8388872FEF3FEF4FEFC2
:100400005FEFE1962CAF3DAF4EAF5FAFE1978D85CB
:100410009E85AF85B889B7FF6AC0E1964CAD5DADEA
:100420006EAD7FADE1974095509560957095E196E2
:100430004CAF5DAF6EAF7FAFE197A19481E01A142E
:1004400008F080E0B19491E01B1408F090E06B2D6F
:10045000681B81E0B61608F080E0982BC19421E07B
:100460001C1408F020E05C2D591B81E0C51608F033
:1004700080E0282BD19491E01D1408F090E04D2DE0
:10048000421B81E0D41608F080E0982BE19421E033
:100490001E1408F020E03E2D391B81E0E31608F021
:1004A00080E0282BF19491E01F1408F090E07F2D5C
:1004B000721B272F81E0F71608F080E0982B01953A
:1004C00011E0101608F010E0802F891B982F81E0B2
:1004D000091708F080E0182B872D8195811BA986CC
:1004E0006A875B874C873D872E879F87888B99819A
:1004F0002A813B814C815D816E817F81A885B98590
:100500001A850B85FC84ED84DE84CF84B88888E06E
:10051000E1E18E2E912C8C0E9D1EF401682E11921D
:100520006A94E9F7998B2A8B3B8B4C8B5D8B6E8B96
:100530007F8BA88F9E01275E3F4FF90111928A950C
:10054000E9F7B98F1A8F0B8FFC8EED8EDE8ECF8E72
:10055000B8A2298C3A8C4B8C5C8CED8CFE8C0F8D68
:1005600018A169887A888B889C8821966CAE7DAEAC
:100570008EAE9FAE21976D887E888F88988CE1140F
:10058000F1040105110509F0D9C362147304840450
:10059000950408F057C100E0201600E0300601E0A5
:1005A000400600E0500688F41FEF21163104410494
:1005B000510439F030F048E0E42EF12C012D112DDA
:1005C00018C0EE24FF24870114C020E0221620E08A
:1005D000320620E0420621E0520630F038E1E32EF8
:1005E000F12C012D112D05C020E1E22EF12C012D61
:1005F000112DD201C1010E2C04C0B695A795979577
:1006000087950A94D2F788599F4FDC012C9180E29C
:1006100090E0A0E0B0E08E199F09A00BB10B7C0127
:100620008D01E21AF10801091109E114F104010533
:100630001105D1F10E2C04C0220C331C441C551C96
:100640000A94D2F7A40193010E2C04C0220F331F89
:10065000441F551F0A94D2F780E290E08E199F093B
:1006600021966CAC7DAC8EAC9FAC219704C0969467
:100670008794779467948A95D2F7622A732A842A9A
:10068000952A2196ACACBDACCEACDFAC219704C0B2
:10069000AA0CBB1CCC1CDD1CEA94D2F72196ACAE94
:1006A000BDAECEAEDFAE21976201EE24FF242996C7
:1006B000CCAEDDAEEEAEFFAE299792018101207087
:1006C00030702D960CAF1DAF2EAF3FAF2D97C401EC
:1006D000B301A70196010E9432127B018C01C40173
:1006E000B30129962CAD3DAD4EAD5FAD29970E946B
:1006F0003212C901DA013C014D01C401B3012D964A
:100700002CAD3DAD4EAD5FAD2D970E9454129B01B7
:10071000AC018701FF24EE242196ACACBDACCEAC7D
:10072000DFAC2197C601AA27BB2757016801A82A79
:10073000B92ACA2ADB2AA216B306C406D506E0F4F3
:1007400008946108710881089108A20CB31CC41CAC
:10075000D51CA214B304C404D50470F0A216B306C9
:10076000C406D50648F40894610871088108910808
:10077000A20CB31CC41CD51CA21AB30AC40AD50A05
:10078000C601B50129962CAD3DAD4EAD5FAD2997A3
:100790000E9432127B018C01C601B50129962CAD55
:1007A0003DAD4EAD5FAD29970E943212C901DA010D
:1007B0005C016D01C601B5012D962CAD3DAD4EAD70
:1007C0005FAD2D970E9454129B01AC018701FF245D
:1007D000EE2421968CAD9DADAEADBFAD2197A0703E
:1007E000B070E82AF92A0A2B1B2BE216F30604073D
:1007F0001507C0F40894A108B108C108D108E20C9B
:10080000F31C041D151DE214F3040405150550F036
:10081000E216F3060407150728F40894A108B108A6
:10082000C108D108D3019927882786017501E82AD4
:10083000F92A0A2B1B2B2596ECAEFDAE0EAF1FAF8F
:100840002597EBC4211431044104510471F461E093
:1008500070E080E090E020E030E040E050E00E9476
:100860003212C901DA011C012D0100E0201600E05E
:10087000300601E0400600E0500688F41FEF211624
:1008800031044104510431F028F048E050E060E0C8
:1008900070E017C040E050E060E070E012C020E07F
:1008A000221620E0320620E0420621E0520628F01F
:1008B00048E150E060E070E004C040E150E060E0FA
:1008C00070E0D201C101042E04C0B695A79597959A
:1008D00087950A94D2F788599F4FDC012C91E0E26A
:1008E000EE2EF12C012D112DD801C701841B950B83
:1008F000A60BB70B821B9109A109B1090097A105AD
:10090000B10561F464015301A218B308C408D50805
:1009100031E0632E712C812C912C24C1E3968FAF92
:10092000E397082E04C0220C331C441C551C0A9467
:10093000D2F7EE2DE81B640153010E2E04C0D694AD
:10094000C794B794A7940A94D2F7A4019301E396AD
:100950000FACE39704C0220F331F441F551F0A94A6
:10096000D2F721966CAC7DAC8EAC9FAC21970E2E4D
:1009700004C096948794779467940A94D2F784017C
:100980007301E22AF32A042B152BE9AEFAAE0BAF62
:100990001CAF3201882499249201810120703070AB
:1009A00061960CAF1DAF2EAF3FAF6197C601B50189
:1009B000A40193010E9432127B018C01C601B50192
:1009C000A40193010E943212C901DA0165968CAF2D
:1009D0009DAFAEAFBFAF6597BC01CD0161962CADA9
:1009E0003DAD4EAD5FAD61970E9454129B01AC01CD
:1009F0008701FF24EE24A9ACBAACCBACDCACC601B9
:100A0000AA27BB275C016D01AE28BF28C02AD12AC6
:100A1000A216B306C406D50660F565966CAD7DAD2D
:100A20008EAD9FAD65976150704080409040659657
:100A30006CAF7DAF8EAF9FAF6597A20CB31CC41C8B
:100A4000D51CA214B304C404D50498F0A216B306AE
:100A5000C406D50670F461507040804090406596A1
:100A60006CAF7DAF8EAF9FAF6597A20CB31CC41C5B
:100A7000D51CA21AB30AC40AD50AC601B501A4013D
:100A800093010E9432127B018C01C601B501A401C1
:100A900093010E943212C901DA013C014D01C401E7
:100AA000B30161962CAD3DAD4EAD5FAD61970E9437
:100AB00054129B01AC018701FF24EE2489AD9AAD4D
:100AC000ABADBCADA070B07057016801A82AB92ABF
:100AD000CA2ADB2AA216B306C406D506E0F4089497
:100AE0006108710881089108A20CB31CC41CD51CB4
:100AF000A214B304C404D50470F0A216B306C4064D
:100B0000D50648F408946108710881089108A20C80
:100B1000B31CC41CD51C21968CAD9DADAEADBFAD34
:100B20002197E3960FACE39704C0880F991FAA1F83
:100B3000BB1F0A94D2F721968CAF9DAFAEAFBFAF6B
:100B40002197A21AB30AC40AD50A6596ECACFDAC8B
:100B50000EAD1FAD6597D70199278827682A792A96
:100B60008A2A9B2A82012227332769960CAF1DAF60
:100B70002EAF3FAF6997A2019101407050706D9602
:100B80002CAF3DAF4EAF5FAF6D97C601B501699613
:100B90002CAD3DAD4EAD5FAD69970E9432127B0129
:100BA0008C01C601B50169962CAD3DAD4EAD5FAD72
:100BB00069970E943212C901DA01A1968CAF9DAFEC
:100BC000AEAFBFAFA197BC01CD016D962CAD3DADD1
:100BD0004EAD5FAD6D970E9454129B01AC01870131
:100BE000FF24EE242196ACACBDACCEACDFAC21979B
:100BF000C601AA27BB2757016801A82AB92ACA2A11
:100C0000DB2AA216B306C406D50660F5A1966CAD24
:100C10007DAD8EAD9FADA1976150704080409040FA
:100C2000A1966CAF7DAF8EAF9FAFA197A20CB31C06
:100C3000C41CD51CA214B304C404D50498F0A21695
:100C4000B306C406D50670F46150704080409040F1
:100C5000A1966CAF7DAF8EAF9FAFA197A20CB31CD6
:100C6000C41CD51CA21AB30AC40AD50AC601B50110
:100C700069962CAD3DAD4EAD5FAD69970E943212C5
:100C80007B018C01C601B50169962CAD3DAD4EAD21
:100C90005FAD69970E943212C901DA015C016D01F2
:100CA000C601B5016D962CAD3DAD4EAD5FAD6D97F6
:100CB0000E9454129B01AC018701FF24EE2421966F
:100CC0008CAD9DADAEADBFAD2197A070B070E82AE0
:100CD000F92A0A2B1B2BE216F30604071507C0F4AA
:100CE0000894A108B108C108D108E20CF31C041D46
:100CF000151DE214F3040405150550F0E216F30681
:100D00000407150728F40894A108B108C108D10800
:100D1000A196ECACFDAC0EAD1FADA197D701992704
:100D2000882796018501082B192B2A2B3B2B25960A
:100D30000CAF1DAF2EAF3FAF259772C26E147F046C
:100D40008006910608F45FC220E0E21620E0F20679
:100D500021E0020720E0120788F43FEFE316F104D8
:100D60000105110531F028F048E050E060E070E046
:100D700017C040E050E060E070E012C040E0E416D0
:100D800040E0F40640E0040741E0140728F048E1A1
:100D900050E060E070E004C040E150E060E070E0EE
:100DA000D801C701042E04C0B695A79597958795DD
:100DB0000A94D2F788599F4FDC012C9130E2A32E80
:100DC000B12CC12CD12CD601C501841B950BA60BCF
:100DD000B70B821B9109A109B1090097A105B105C3
:100DE00099F4E614F7040805190508F4FEC12196E4
:100DF0006CAC7DAC8EAC9FAC219762147304840400
:100E0000950408F0F2C1FFC1E2968FAFE297082E79
:100E100004C0EE0CFF1C001F111F0A94D2F76A2DAC
:100E2000681BD201C101062E04C0B695A7959795FF
:100E300087950A94D2F75C016D01AE28BF28C02ABD
:100E4000D12AADAABEAACFAAD8AE72016101E2969C
:100E50000FACE29704C0CC0CDD1CEE1CFF1C0A9406
:100E6000D2F7C9AADAAAEBAAFCAA64015301062E9A
:100E700004C0D694C794B794A7940A94D2F7D40127
:100E8000C301E2960FACE29704C0880F991FAA1F16
:100E9000BB1F0A94D2F72196ECACFDAC0EAD1FAD92
:100EA000219704C016950795F794E7946A95D2F7B1
:100EB00037014801682A792A8A2A9B2A6DA67EA6CC
:100EC0008FA698AAEDA8FEA80FA918AD380188240E
:100ED00099249801870120703070A5960CAF1DAF42
:100EE0002EAF3FAFA597C601B501A40193010E94A3
:100EF00032127B018C01C601B501A40193010E944D
:100F00003212C901DA011C012D01C201B101A596FD
:100F10002CAD3DAD4EAD5FADA5970E9454129B0127
:100F2000AC018701FF24EE24ADA4BEA4CFA4D8A8B1
:100F3000C601AA27BB2757016801A82AB92ACA2ACD
:100F4000DB2AA216B306C406D50600F508942108CC
:100F5000310841085108EDA8FEA80FA918ADAE0C44
:100F6000BF1CC01ED11EAE14BF04C006D10670F057
:100F7000A216B306C406D50648F408942108310821
:100F800041085108AE0CBF1CC01ED11EA21AB30AE4
:100F9000C40AD50AC601B501A40193010E94321208
:100FA0007B018C01C601B501A40193010E9432129C
:100FB000C901DA013C014D01C401B301A5962CAD74
:100FC0003DAD4EAD5FADA5970E9454129B01AC01A3
:100FD0008701FF24EE248DA59EA5AFA5B8A9A0701A
:100FE000B07057016801A82AB92ACA2ADB2AA216BA
:100FF000B306C406D50600F5089461087108810897
:1010000091086DA97EA98FA998ADA60EB71EC81E1E
:10101000D91EA616B706C806D90670F0A216B306E2
:10102000C406D50648F4089461087108810891083F
:10103000A60EB71EC81ED91ED601C501821B930B72
:10104000A40BB50B89A79AA7ABA7BCA7D101992779
:10105000882764015301A82AB92ACA2ADB2A2596BF
:10106000ACAEBDAECEAEDFAE2597860175012FEFDB
:101070003FEF40E050E0E222F32204231523A601D3
:1010800066277727AD964CAF5DAF6EAF7FAFAD975C
:10109000A9A8BAA8CBA8DCA86FEF7FEF80E090E00A
:1010A000A622B722C822D92289A99AA9ABA9BCA98C
:1010B0001D0144245524C801B701A60195010E94D1
:1010C0005412A9966CAF7DAF8EAF9FAFA997C801A0
:1010D000B701A20191010E9454123B014C01AD964F
:1010E0006CAD7DAD8EAD9FADAD97A60195010E9413
:1010F00054127B018C01AD966CAD7DAD8EAD9FAD74
:10110000AD97A20191010E9454125B016C01A801EC
:101110009701260D371D481D591DA9966CAC7DAC55
:101120008EAC9FACA997C401AA27BB27280F391FF3
:101130004A1F5B1F2E153F054007510748F4E12C5D
:10114000F12C61E0062F112DAE0CBF1CC01ED11E6C
:10115000CA01AA27BB27BC01CD016A0D7B1D8C1DCE
:101160009D1D69A47AA48BA49CA4661677068806A4
:10117000990650F1661577058805990509F04DC067
:10118000D90199278827A9962CAD3DAD4EAD5FAD0D
:10119000A99740705070820F931FA41FB51F21960E
:1011A0002CAD3DAD4EAD5FAD2197E2960FACE29711
:1011B00004C0220F331F441F551F0A94D2F728176B
:1011C00039074A075B0748F525960CAD1DAD2EADD6
:1011D0003FAD2597015010402040304025960CAF80
:1011E0001DAF2EAF3FAF259718C06624772443016B
:1011F00021E030E040E050E025962CAF3DAF4EAF0F
:101200005FAF25970DC066247724430125961CAE59
:101210001DAE1EAE1FAE259703C066247724430182
:10122000FE01B19688E0DF011D928A95E9F72596C7
:10123000ACACBDACCEACDFAC2597A9A2BAA2CBA218
:10124000DCA26DA27EA28FA298A622962FAD229735
:101250003AA14BA15CA1662D7EA1DFA098A5E196E5
:10126000ECACFDAC0EAD1FADE197E114F10401054E
:10127000110509F456C0219581E0121608F080E0AE
:101280003195E1E0131608F0E0E0932E981A81E022
:10129000391508F080E0E82B4195F1E0141608F0CC
:1012A000F0E0A42EAE1A81E04A1508F080E0F82B99
:1012B0005195E1E0151608F0E0E0B52EBF1A81E087
:1012C0005B1508F080E0E82B6195F1E0161608F058
:1012D000F0E0A62FAE1B81E06A1708F080E0F82B43
:1012E0007195E1E0171608F0E0E0C72ECF1A81E013
:1012F0007C1508F080E0E82B8D2D8195F1E0181623
:1013000008F0F0E0D82EDE1AE1E08D1508F0E0E0FC
:10131000FE2B892F8195392DA5016A2F7C2D982FC1
:101320009F1B8D2DCE58DF4FE2E10C948F12A0E071
:10133000B0E0EDE9F9E00C947312DC012B01FA0145
:101340009C91923008F439C1EB018881823008F415
:1013500033C1943069F4843009F02FC111969C9107
:1013600011978981981709F428C1A0E6B0E025C13A
:10137000843009F421C18230A9F4923009F01DC1F2
:101380009A01AD0188E0EA010990AE01E9010992F4
:101390009E018150C1F7E201898111969C918923B8
:1013A000818308C1923009F407C112962D903C90B8
:1013B0001397EB018A819B811496AD90BD90CD90DF
:1013C000DC901797EC80FD800E811F819101281B16
:1013D000390BB90137FF04C066277727621B730BEF
:1013E000603271050CF061C0121613066CF53701FE
:1013F0004801062E04C096948794779467940A94C3
:10140000D2F721E030E040E050E004C0220F331F6B
:10141000441F551F6A95D2F721503040404050403C
:101420002E213F214023512321153105410551052E
:1014300021F021E030E040E050E079018A01E62827
:10144000F728082919293CC0232BD1F1260E371E75
:1014500035014601062E04C09694879477946794CC
:101460000A94D2F721E030E040E050E004C0220FBF
:10147000331F441F551F6A95D2F72150304040401A
:1014800050402A213B214C215D2121153105410588
:10149000510521F021E030E040E050E059016A01BF
:1014A000A628B728C828D9280BC0821593052CF088
:1014B0001C01AA24BB24650103C0EE24FF2487017C
:1014C00011969C91D20111968C91981709F445C000
:1014D000992339F0A80197012A193B094C095D09A4
:1014E00006C0A60195012E193F09400B510B57FD6F
:1014F00008C0118233822282248335834683578336
:101500001DC081E081833382228288279927DC01F4
:10151000821B930BA40BB50B84839583A683B7839F
:101520000DC0220F331F441F551F2483358346836C
:1015300057838281938101979383828324813581AC
:1015400046815781DA01C9010197A109B1098F5F6D
:101550009F4FAF4FBF4328F30BC09183338222824A
:10156000EA0CFB1C0C1D1D1DE482F582068317830B
:1015700083E08083248135814681578157FF1AC0DB
:10158000C901AA2797FDA095BA2F81709070A0700D
:10159000B0705695479537952795822B932BA42BA2
:1015A000B52B84839583A683B7838281938101962B
:1015B00093838283DF0101C0D201CD01CDB7DEB7B5
:1015C000E2E1ADC7A0E2B0E0E7EEFAE098C76983D8
:1015D0007A838B839C832D833E834F835887E9E0F6
:1015E000EE2EF12CEC0EFD1ECE010196B701B0D30C
:1015F0008E010F5E1F4FCE010596B801A9D38A89CF
:1016000091E089278A8BC701B801AE01475E5F4F21
:101610008EDEC9D2A096E6E08EC7A0E2B0E0E2E19D
:10162000FBE06DC769837A838B839C832D833E8324
:101630004F835887F9E0EF2EF12CEC0EFD1ECE0102
:101640000196B70185D38E010F5E1F4FCE0105961F
:10165000B8017ED3C701B801AE01475E5F4F67DEB8
:10166000A2D2A096E6E067C7A0E2B0E0E9E3FBE023
:101670003AC769837A838B839C832D833E834F8310
:101680005887CE010196BE01675F7F4F61D3CE01BF
:101690000596BE016F5E7F4F5BD39985923088F0CF
:1016A00089898230C8F0943019F4823051F404C032
:1016B000843029F4923081F480E690E0C6C0923004
:1016C00049F420E09A858A89981321E02A87CE017F
:1016D0000996BBC0823049F420E09A858A89981324
:1016E00021E02A8BCE014196B0C02D843E844F84E8
:1016F00058886D887E888F88988CEE24FF24870117
:10170000AA24BB24650140E050E060E070E0E0E026
:10171000F0E0C10181709070892BE9F0E60CF71CB4
:10172000081D191D9A01AB012A0D3B1D4C1D5D1DA5
:1017300080E090E0A0E0B0E0E614F70408051905A9
:1017400020F481E090E0A0E0B0E0BA01A901480FE8
:10175000591F6A1F7B1FAA0CBB1CCC1CDD1C97FEEB
:1017600008C081E090E0A0E0B0E0A82AB92ACA2A27
:10177000DB2A3196E032F10549F0660C771C881CB3
:10178000991C5694479437942794C3CFFA85EA89D5
:101790002B893C898B859C85280F391F2E5F3F4FF5
:1017A00017C0CA0181709070892B61F0169507955A
:1017B000F794E79480E090E0A0E0B0E8E82AF92A06
:1017C0000A2B1B2B76956795579547952F5F3F4FB3
:1017D00077FDE7CF0CC0440F551F661F771F17FD1D
:1017E0004160EE0CFF1C001F111F215030404030A3
:1017F00090E0590790E0690790E4790760F32B8F38
:101800003C8FDB01CA018F779070A070B07080347C
:101810009105A105B10561F447FD0AC0E114F10489
:101820000105110529F0405C5F4F6F4F7F4F4078F5
:101830001A8EFE1711F081E08A8F4D8F5E8F6F8FA9
:1018400078A383E0898FCE014996ADD1A096E2E1DD
:1018500066C6A8E1B0E0EEE2FCE051C669837A8397
:101860008B839C832D833E834F83588789E0E82EAA
:10187000F12CEC0EFD1ECE010196B70169D28E014E
:101880000F5E1F4FCE010596B80162D28985823066
:1018900038F08989823020F0C701B801D1D201C067
:1018A0008FEF6896E6E047C6A8E0B0E0E9E5FCE027
:1018B00023C69B01AC0183E08983DA01C901882733
:1018C000B7FD83959927AA27BB27B82E2115310587
:1018D0004105510519F482E0898339C08823A9F0B4
:1018E000203080E0380780E0480780E8580729F476
:1018F00060E070E080E09FEC2EC0EE24FF248701C2
:10190000E21AF30A040B150B02C079018A018EE179
:10191000C82ED12CDC82CB82ED82FE820F83188709
:10192000C801B701F1D001971816190684F4082EE2
:1019300004C0EE0CFF1C001F111F0A94D2F7ED82A9
:10194000FE820F831887C81AD90ADC82CB82BA823A
:10195000CE01019628D12896E9E0EAC5ACE0B0E0D6
:10196000E3EBFCE0D0C569837A838B839C83CE0153
:101970000196BE016B5F7F4FEBD18D81823061F1AB
:10198000823050F1843021F48E81882351F12EC0B1
:101990002F81388537FD20C06E812F3131051CF035
:1019A0006623F9F023C08EE190E0821B930B29851A
:1019B0003A854B855C8504C05695479537952795A4
:1019C0008A95D2F76623B1F05095409530952195D0
:1019D0003F4F4F4F5F4F0EC020E030E040E050E0FF
:1019E00009C02FEF3FEF4FEF5FE704C020E030E08A
:1019F00040E050E8B901CA012C96E2E0A0C5EF92A0
:101A0000FF920F93DF93CF93CDB7DEB760970FB6FA
:101A1000F894DEBF0FBECDBFA82F002309F467C026
:101A20007E010894E11CF11C88E0F70111928A956F
:101A3000E9F729833A834B835C836D837E83AF838D
:101A4000988780E2801B4D815E816F817885E82FC9
:101A5000FF27E7FDF0951816B4F0DB01CA01BB0FB4
:101A6000880B982FDC018D879E87AF87B88B8827DE
:101A700099278E1B9F0B04C07595679557954795C1
:101A80008A95D2F728C0202F332727FD3095DB0118
:101A9000CA01022E04C0B595A795979587950A941B
:101AA000D2F78D879E87AF87B88B04C0440F551F30
:101AB000661F771FEA95D2F789819A81AB81BC8135
:101AC00004C0B695A795979587952A95D2F7482B88
:101AD000592B6A2B7B2B49875A876B877C872985F3
:101AE0003A854B855C856D857E85AF8598898A2F83
:101AF00060960FB6F894DEBF0FBECDBFCF91DF91D9
:101B00000F91FF90EF900895EF92FF920F931F9324
:101B10007B018C0180E0E81680E0F80681E0080790
:101B200080E0180788F48FEFE816F104010511052D
:101B300031F028F088E090E0A0E0B0E017C080E04D
:101B400090E0A0E0B0E012C080E0E81680E0F80687
:101B500080E0080781E0180728F088E190E0A0E025
:101B6000B0E004C080E190E0A0E0B0E020E230E02E
:101B700040E050E0281B390B4A0B5B0B04C0169564
:101B80000795F794E7948A95D2F7F701E859FF4F44
:101B90008081281B310941095109C9011F910F9109
:101BA000FF90EF900895DF92EF92FF920F931F93B3
:101BB000FC01E480F58006811781D180808182302C
:101BC00048F480E090E0A0E1B0E0E82AF92A0A2B8E
:101BD0001B2BA5C0843009F49FC0823021F4EE2471
:101BE000FF24870105C0E114F1040105110519F472
:101BF000E0E0F0E096C0628173819FEF6238790780
:101C00000CF05BC022E83FEF261B370B2A31310571
:101C10002CF020E030E040E050E02AC0B801A701FD
:101C2000022E04C076956795579547950A94D2F78A
:101C300081E090E0A0E0B0E004C0880F991FAA1FE7
:101C4000BB1F2A95D2F70197A109B1098E219F21C7
:101C5000A023B1230097A105B10521F081E090E018
:101C6000A0E0B0E09A01AB01282B392B4A2B5B2B6B
:101C7000DA01C9018F779070A070B070803491053F
:101C8000A105B10539F427FF09C0205C3F4F4F4F34
:101C90005F4F04C0215C3F4F4F4F5F4FE0E0F0E0EB
:101CA0002030A0E03A07A0E04A07A0E45A0710F06D
:101CB000E1E0F0E079018A0127C06038710564F540
:101CC000FB01E158FF4FD801C7018F779070A070DA
:101CD000B07080349105A105B10539F4E7FE0DC05F
:101CE00080E490E0A0E0B0E004C08FE390E0A0E0EA
:101CF000B0E0E80EF91E0A1F1B1F17FF05C016955E
:101D00000795F794E794319687E016950795F79431
:101D1000E7948A95D1F705C0EE24FF248701EFEF01
:101D2000F0E06E2F679566276795902F9F77D79481
:101D3000DD24D7948E2F8695492F462B582F5D2969
:101D4000B701CA011F910F91FF90EF90DF900895A6
:101D5000FC01DB01408151812281622F6F7770E0AD
:101D6000221F2227221F9381892F880F822B282F41
:101D700030E0991F9927991F11969C93119721156F
:101D80003105A9F5411551056105710511F482E090
:101D900037C082E89FEF13969C938E9312979A0117
:101DA000AB0167E0220F331F441F551F6A95D1F71F
:101DB00083E08C930DC0220F331F441F551F1296D2
:101DC0008D919C911397019713969C938E931297E4
:101DD000203080E0380780E0480780E4580758F357
:101DE00014962D933D934D935C93179708952F3F31
:101DF000310579F4411551056105710519F484E047
:101E00008C93089564FF03C081E08C9312C01C92F0
:101E100010C02F57304013963C932E93129783E0B7
:101E20008C9387E0440F551F661F771F8A95D1F763
:101E3000706414964D935D936D937C9317970895FA
:101E40001F93DC01FB019C91923008F447C0808114
:101E5000823008F443C0943051F411961C918430C0
:101E600099F58181682F70E0611B71093FC0843052
:101E700021F0923031F48230B9F18181882389F1E7
:101E80002DC011961C9111978230F1F081811817A5
:101E9000D9F412962D913C911397828193818217E8
:101EA000930794F028173907BCF014968D919D91F3
:101EB0000D90BC91A02D2481358146815781281732
:101EC00039074A075B0718F4112341F00AC082174B
:101ED0009307A407B50740F4112319F061E070E0FF
:101EE00005C06FEF7FEF02C060E070E0CB011F9193
:101EF0000895DF93CF93CDB7DEB7809168019091BD
:101F00006901009729F0E0916801F0916901099554
:101F10007894CF91DF910895DF93CF93CDB7DEB75B
:101F200080916A0190916B01009729F0E0916A011C
:101F3000F0916B0109957894CF91DF9108952F92DC
:101F40003F924F925F926F927F928F929F92AF9249
:101F5000BF92CF92DF92EF92FF920F931F93DF9386
:101F6000CF93CDB7DEB7E0970FB6F894DEBF0FBEC4
:101F7000CDBF8B837D836C838C819D81829592956F
:101F8000907F9827807F98271C014424552466243D
:101F90007724430120E432E44FE050E060E070E059
:101FA00080E090E0A22CB32CC42CD52CE62CF72C8E
:101FB000082D192D0E946F01A22EB32EC42ED52EEE
:101FC000E62EF72E082F192FAE82BF82C886D9863B
:101FD000EA86FB860C871D878FEF8E879FEF9F8792
:101FE0008FEF888B9FEF998B8FEF8A8B9FEF9B8B67
:101FF0008FEF8C8B9FEF9D8B8E819E85890F8E8BB3
:1020000081E08E8F9E898E81981708F01E8E9F81A9
:102010008F85980F9F8B91E09F8F8F899F81891764
:1020200008F01F8E8E8D9F89890F88A381E089A378
:1020300098A18F89981708F019A29F8D89A1982BD4
:102040009F8F98A19F8B88859889890F888F81E0C1
:102050008AA3988D8885981708F01AA29F8D888D7D
:10206000980F9BA391E09CA38BA1988D891708F0F2
:102070001CA28AA19CA1892B8AA38BA1888F9985F8
:102080008989980F998F91E09DA3898D99858917EA
:1020900008F01DA28AA1998D890F8EA381E08FA3DC
:1020A0009EA1898D981708F01FA29DA18FA1982B42
:1020B0009DA39EA1998F8A859A89890F8A8F81E035
:1020C00088A79A8D8A85981708F018A69DA18A8DF1
:1020D000980F99A791E09AA789A59A8D891708F07A
:1020E0001AA688A59AA5892B88A789A58A8F9B857A
:1020F0008B89980F9B8F91E09BA78B8D9B85891770
:1021000008F01BA688A59B8D890F8CA781E08DA761
:102110009CA58B8D981708F01DA69BA58DA5982BC7
:102120009BA79CA59B8F8C859C89890F8C8F81E0B8
:102130008EA79C8D8C85981708F01EA69BA58C8D6C
:10214000980F9FA791E098AB8FA59C8D891708F0F9
:1021500018AA8EA598A9892B8EA78FA58C8F9D85EF
:102160008D89980F9D8F8EA59D8D890F8D8FAE883F
:10217000BF88C88CD98CEA8CFB8C0C8D1D8D2A2DC8
:102180003B2D4C2D5D2D6E2D7F2D802F912F0E948C
:102190007400DC01CB01BC01CD01DCD1DC01CB0141
:1021A000BC01CD010E944800DC01CB019A838983E8
:1021B000E0E4F0E089819A81892F99278083E9E220
:1021C000F0E089818083AAE2B0E0EAE2F0E0808179
:1021D00088618C93A0E4B0E0E0E4F0E080818F7B44
:1021E0008C93A0E4B0E0E0E4F0E080818E6B8C930F
:1021F000E0960FB6F894DEBF0FBECDBFCF91DF9152
:102200001F910F91FF90EF90DF90CF90BF90AF9014
:102210009F908F907F906F905F904F903F902F9006
:102220000895DF93CF930F92CDB7DEB78983EBE2AA
:10223000F0E080818823DCF7ECE2F0E080810F9011
:10224000CF91DF910895DF93CF9300D0CDB7DEB764
:1022500089836A83EBE2F0E08081882F90E08072CE
:1022600090700097B9F3ECE2F0E08A8180830F90E0
:102270000F90CF91DF910895DF93CF930F92CDB759
:10228000DEB719821BC08981882F90E0880F991FC3
:10229000FC01E259FE4F80819181009761F08981B4
:1022A000882F90E0880F991FFC01E259FE4F0190A2
:1022B000F081E02D099589818F5F89838981882349
:1022C00011F30F90CF91DF910895DF93CF930F9289
:1022D000CDB7DEB719821BC08981882F90E0880FA7
:1022E000991FFC01E059FE4F80819181009761F0B8
:1022F0008981882F90E0880F991FFC01E059FE4FDB
:102300000190F081E02D099589818F5F8983898112
:10231000882311F30F90CF91DF910895DF93CF932E
:1023200000D0CDB7DEB789836A838981882F90E09A
:102330000196DC018981882F90E00196FC01908153
:102340008A81892B8C930F900F90CF91DF91089504
:10235000DF93CF9300D00F92CDB7DEB789836A8326
:102360004B838981882F90E00296DC018981882F38
:1023700090E00296FC018081482F8A81282F30E06E
:1023800081E090E002C0880F991F2A95E2F78095BE
:1023900084238C938981882F90E00296DC018981C7
:1023A000882F90E00296FC018081482F8B81282F96
:1023B00030E08A81882F90E0B90102C0660F771F54
:1023C0008A95E2F7CB01842B8C930F900F900F909E
:1023D000CF91DF910895DF93CF9300D0CDB7DEB7D3
:1023E00089836A838981882F90E0FC018081482F4E
:1023F0008A81282F30E081E090E0022E02C0880F11
:10240000991F0A94E2F784230F900F90CF91DF91E8
:102410000895DF93CF930F92CDB7DEB786E360E0E8
:10242000DADF1982882311F481E0898386E360E092
:1024300049818EDF0F90CF91DF910895DF93CF9385
:10244000CDB7DEB780E060E875E279DD86E363E072
:1024500065DF80E061E6F7DE80E0E3DE8136C9F724
:10246000D8DFF7CFA1E21A2EAA1BBB1BFD010DC0BE
:10247000AA1FBB1FEE1FFF1FA217B307E407F50734
:1024800020F0A21BB30BE40BF50B661F771F881F10
:10249000991F1A9469F760957095809590959B01A6
:1024A000AC01BD01CF010895629FD001739FF0017F
:1024B000829FE00DF11D649FE00DF11D929FF00DD4
:1024C000839FF00D749FF00D659FF00D9927729F0B
:1024D000B00DE11DF91F639FB00DE11DF91FBD0196
:1024E000CF01112408952F923F924F925F926F92E5
:1024F0007F928F929F92AF92BF92CF92DF92EF9294
:10250000FF920F931F93CF93DF93CDB7DEB7CA1B14
:10251000DB0B0FB6F894DEBF0FBECDBF09942A883F
:10252000398848885F846E847D848C849B84AA84E7
:10253000B984C884DF80EE80FD800C811B81AA8174
:10254000B981CE0FD11D0FB6F894DEBF0FBECDBF3F
:10255000ED01089550D0E0F09E37D8F09639B8F4E8
:102560009E3848F4672F782F8827985FF9CF869593
:102570007795679593959539D0F3B62FB1706B0F1A
:10258000711D811D20F4879577956795939502C0FD
:102590001CC04CC0882371F4772321F09850872BFE
:1025A000762F07C0662311F499270DC09051862B12
:1025B00070E060E02AF09A95660F771F881FDAF7BF
:1025C000880F9695879597F908959F3F31F0915020
:1025D00020F4879577956795B795880F911D969507
:1025E000879597F9089557FD9058440F551F59F056
:1025F0005F3F71F04795880F97FB991F61F09F3FF0
:1026000079F087950895121613061406551FF2CF18
:102610004695F1DF08C0161617061806991FF1CF68
:1026200086957105610508940895E894BB2766278F
:0C2630007727CB0197F90895F894FFCFAD
:10263C00000000000000000000010202030303037D
:10264C000404040404040404050505050505050536
:10265C000505050505050505060606060606060616
:10266C0006060606060606060606060606060606FE
:10267C0006060606060606060707070707070707E6
:10268C0007070707070707070707070707070707CE
:10269C0007070707070707070707070707070707BE
:1026AC0007070707070707070707070707070707AE
:1026BC000707070707070707080808080808080896
:1026CC00080808080808080808080808080808087E
:1026DC00080808080808080808080808080808086E
:1026EC00080808080808080808080808080808085E
:1026FC00080808080808080808080808080808084E
:10270C00080808080808080808080808080808083D
:10271C00080808080808080808080808080808082D
:10272C00080808080808080808080808080808081D
:08273C00080808080808080855
:00000001FF
