:1000000029C0000044C0000042C0000040C0000001
:100010003BC600003CC000003AC0000038C00000F1
:1000200036C0000034C000001DC6000030C0000013
:100030002EC000002CC000002AC0000028C0000014
:1000400026C0000024C0000022C0000020C0000024
:100050001EC0000011241FBECFE5D8E0DEBFCDBF1B
:1000600010E0A0E6B0E0E0E0FCE202C005900D92F6
:10007000A238B107D9F710E0A2E8B0E001C01D92A4
:10008000A938B107E1F70E94A8120C94FE15B8CF69
:10009000EF92FF920F931F937B018C0120E030E0E1
:1000A00040E05FE48CD388237CF0C801B70120E0F6
:1000B00030E040E05FE460D1DCD39B01AC01205034
:1000C00030404040504805C0C801B701D2D39B0121
:1000D000AC01B901CA011F910F91FF90EF900895F3
:1000E000A0E0B0E0E6E7F0E00C943813DC012B016F
:1000F000FA019C91923008F439C1EB018881823079
:1001000008F433C1943069F4843009F02FC111969A
:100110009C9111978981981709F428C1A7E7B0E04D
:1001200025C1843009F421C18230A9F4923009F04C
:100130001DC19A01AD0188E0EA010990AE01E90113
:1001400009929E018150C1F7E201898111969C912B
:100150008923818308C1923009F407C112962D903A
:100160003C901397EB018A819B811496AD90BD90D2
:10017000CD90DC901797EC80FD800E811F8191015E
:10018000281B390BB90137FF04C066277727621B8C
:10019000730B603271050CF061C0121613066CF51A
:1001A00037014801062E04C096948794779467948B
:1001B0000A94D2F721E030E040E050E004C0220F82
:1001C000331F441F551F6A95D2F7215030404040DD
:1001D00050402E213F214023512321153105410557
:1001E000510521F021E030E040E050E079018A0142
:1001F000E628F728082919293CC0232BD1F1260E1F
:10020000371E35014601062E04C0969487947794D4
:1002100067940A94D2F721E030E040E050E004C057
:10022000220F331F441F551F6A95D2F721503040CB
:10023000404050402A213B214C215D2121153105B0
:100240004105510521F021E030E040E050E0590146
:100250006A01A628B728C828D9280BC0821593059B
:100260002CF01C01AA24BB24650103C0EE24FF244A
:10027000870111969C91D20111968C91981709F4DF
:1002800045C0992339F0A80197012A193B094C0967
:100290005D0906C0A60195012E193F09400B510BBF
:1002A00057FD08C01182338222822483358346831E
:1002B00057831DC081E0818333822282882799275A
:1002C000DC01821B930BA40BB50B84839583A6835F
:1002D000B7830DC0220F331F441F551F248335835E
:1002E00046835783828193810197938382832481FC
:1002F000358146815781DA01C9010197A109B10908
:100300008F5F9F4FAF4FBF4328F30BC09183338262
:100310002282EA0CFB1C0C1D1D1DE482F582068363
:10032000178383E08083248135814681578157FF7D
:100330001AC0C901AA2797FDA095BA2F81709070A5
:10034000A070B0705695479537952795822B932BC3
:10035000A42BB52B84839583A683B7838281938155
:10036000019693838283DF0101C0D201CD01CDB715
:10037000DEB7E2E10C945413A0E2B0E0E2ECF1E06D
:100380000C94441369837A838B839C832D833E83EF
:100390004F835887E9E0EE2EF12CEC0EFD1ECE01C6
:1003A0000196B7018ED38E010F5E1F4FCE010596C9
:1003B000B80187D38A8991E089278A8BC701B80160
:1003C000AE01475E5F4F8CDEA7D2A096E6E00C94AC
:1003D0006013A0E2B0E0EFEEF1E00C944413698307
:1003E0007A838B839C832D833E834F835887F9E0E8
:1003F000EF2EF12CEC0EFD1ECE010196B70161D35C
:100400008E010F5E1F4FCE010596B8015AD3C7016A
:10041000B801AE01475E5F4F63DE7ED2A096E6E094
:100420000C946013A0E2B0E0E8E1F2E00C94381321
:1004300069837A838B839C832D833E834F83588784
:10044000CE010196BE01675F7F4F3BD3CE0105967B
:10045000BE016F5E7F4F35D39985923088F08989D0
:100460008230C8F0943019F4823051F404C08430E2
:1004700029F4923081F487E790E0C6C0923049F4C5
:1004800020E09A858A89981321E02A87CE0109966F
:10049000BBC0823049F420E09A858A89981321E014
:1004A0002A8BCE014196B0C02D843E844F8458885B
:1004B0006D887E888F88988CEE24FF248701AA247B
:1004C000BB24650140E050E060E070E0E0E0F0E077
:1004D000C10181709070892BE9F0E60CF71C081DB2
:1004E000191D9A01AB012A0D3B1D4C1D5D1D80E0BD
:1004F00090E0A0E0B0E0E614F7040805190520F448
:1005000081E090E0A0E0B0E0BA01A901480F591FD6
:100510006A1F7B1FAA0CBB1CCC1CDD1C97FE08C0ED
:1005200081E090E0A0E0B0E0A82AB92ACA2ADB2A3C
:100530003196E032F10549F0660C771C881C991C55
:100540005694479437942794C3CFFA85EA892B8928
:100550003C898B859C85280F391F2E5F3F4F17C024
:10056000CA0181709070892B61F016950795F794F8
:10057000E79480E090E0A0E0B0E8E82AF92A0A2BAE
:100580001B2B76956795579547952F5F3F4F77FDC6
:10059000E7CF0CC0440F551F661F771F17FD416042
:1005A000EE0CFF1C001F111F21503040403090E026
:1005B000590790E0690790E4790760F32B8F3C8F2F
:1005C000DB01CA018F779070A070B0708034910504
:1005D000A105B10561F447FD0AC0E114F10401056C
:1005E000110529F0405C5F4F6F4F7F4F40781A8EA6
:1005F000FE1711F081E08A8F4D8F5E8F6F8F78A389
:1006000083E0898FCE01499687D1A096E2E10C94D0
:100610005413A8E1B0E0EFE0F3E00C9440136983D9
:100620007A838B839C832D833E834F835887B9E0E5
:10063000EB2EF12CEC0EFD1ECE010196B70141D23E
:100640008E010F5E1F4FCE010596B8013AD2298563
:10065000223008F47EC03989323010F4B8017CC0F1
:100660008A859A8989278A87243011F0223031F4CB
:10067000231709F06EC067E770E06EC0343039F4BC
:100680001D861E861F86188A1C861B8604C0323073
:1006900021F484E08987B7015FC02B853C858B8975
:1006A0009C89281B390B3C872B87ED84FE840F85A2
:1006B0001889AD88BE88CF88D88CEA14FB040C0555
:1006C0001D0540F4EE0CFF1C001F111F215030408F
:1006D0003C872B8720E030E040E050E080E090E075
:1006E000A0E0B0E460E070E0EA14FB040C051D0536
:1006F00040F0282B392B4A2B5B2BEA18FB080C09FE
:100700001D09B695A79597958795EE0CFF1C001FC0
:10071000111F6F5F7F4F6F31710531F7DA01C9012A
:100720008F779070A070B07080349105A105B105ED
:1007300061F427FD0AC0E114F1040105110529F057
:10074000205C3F4F4F4F5F4F20782D873E874F876C
:10075000588BBE01675F7F4FCB01DED06896EAE021
:100760000C945C13A8E1B0E0E8EBF3E00C944413C4
:1007700069837A838B839C832D833E834F83588741
:1007800089E0E82EF12CEC0EFD1ECE010196B7019A
:1007900098D18E010F5E1F4FCE010596B80191D101
:1007A0008985823038F08989823020F0C701B8010C
:1007B00000D201C08FEF6896E6E00C946013A8E1C8
:1007C000B0E0E5EEF3E00C94441369837A838B8305
:1007D0009C832D833E834F83588789E0E82EF12C3C
:1007E000EC0EFD1ECE010196B7016BD18E010F5E9E
:1007F0001F4FCE010596B80164D18985823038F04B
:100800008989823020F0C701B801D3D101C08FEFB0
:100810006896E6E00C946013A8E1B0E0E2E1F4E051
:100820000C94441369837A838B839C832D833E834A
:100830004F83588789E0E82EF12CEC0EFD1ECE0187
:100840000196B7013ED18E010F5E1F4FCE01059676
:10085000B80137D18985823038F08989823020F01B
:10086000C701B801A6D101C081E06896E6E00C940A
:100870006013ACE0B0E0EFE3F4E00C94481369835C
:100880007A838B839C83CE010196BE016B5F7F4F81
:1008900018D18D81823061F1823050F1843021F4A1
:1008A0008E81882351F12EC02F81388537FD20C0DD
:1008B0006E812F3131051CF06623F9F023C08EE1E3
:1008C00090E0821B930B29853A854B855C8504C09B
:1008D00056954795379527958A95D2F76623B1F0B7
:1008E00050954095309521953F4F4F4F5F4F0EC02B
:1008F00020E030E040E050E009C02FEF3FEF4FEF45
:100900005FE704C020E030E040E050E8B901CA01F0
:100910002C96E2E00C946413DF92EF92FF920F9317
:100920001F93FC01E480F58006811781D1808081CE
:10093000823048F480E090E0A0E1B0E0E82AF92AB3
:100940000A2B1B2BA5C0843009F49FC0823021F4F0
:10095000EE24FF24870105C0E114F104010511050F
:1009600019F4E0E0F0E096C0628173819FEF623895
:1009700079070CF05BC022E83FEF261B370B2A31CA
:1009800031052CF020E030E040E050E02AC0B80112
:10099000A701022E04C076956795579547950A944E
:1009A000D2F781E090E0A0E0B0E004C0880F991F8A
:1009B000AA1FBB1F2A95D2F70197A109B1098E2161
:1009C0009F21A023B1230097A105B10521F081E06B
:1009D00090E0A0E0B0E09A01AB01282B392B4A2B24
:1009E0005B2BDA01C9018F779070A070B0708034F2
:1009F0009105A105B10539F427FF09C0205C3F4FDF
:100A00004F4F5F4F04C0215C3F4F4F4F5F4FE0E0BF
:100A1000F0E02030A0E03A07A0E04A07A0E45A073F
:100A200010F0E1E0F0E079018A0127C0603871053B
:100A300064F5FB01E158FF4FD801C7018F77907033
:100A4000A070B07080349105A105B10539F4E7FEBE
:100A50000DC080E490E0A0E0B0E004C08FE390E03F
:100A6000A0E0B0E0E80EF91E0A1F1B1F17FF05C02B
:100A700016950795F794E794319687E016950795B4
:100A8000F794E7948A95D1F705C0EE24FF248701F7
:100A9000EFEFF0E06E2F679566276795902F9F77B1
:100AA000D794DD24D7948E2F8695492F462B582F27
:100AB0005D29B701CA011F910F91FF90EF90DF9060
:100AC0000895FC01DB01408151812281622F6F7703
:100AD00070E0221F2227221F9381892F880F822BEB
:100AE000282F30E0991F9927991F11969C931197F1
:100AF00021153105A9F5411551056105710511F45F
:100B000082E037C082E89FEF13969C938E931297F2
:100B10009A01AB0167E0220F331F441F551F6A95EE
:100B2000D1F783E08C930DC0220F331F441F551F54
:100B300012968D919C911397019713969C938E9387
:100B40001297203080E0380780E0480780E458079B
:100B500058F314962D933D934D935C9317970895F6
:100B60002F3F310579F4411551056105710519F4DF
:100B700084E08C93089564FF03C081E08C9312C0DD
:100B80001C9210C02F57304013963C932E9312970F
:100B900083E08C9387E0440F551F661F771F8A956B
:100BA000D1F7706414964D935D936D937C93179772
:100BB00008951F93DC01FB019C91923008F447C01B
:100BC0008081823008F443C0943051F411961C9116
:100BD000843099F58181682F70E0611B71093FC0F5
:100BE000843021F0923031F48230B9F18181882350
:100BF00089F12DC011961C9111978230F1F08181FD
:100C00001817D9F412962D913C91139782819381F4
:100C10008217930794F028173907BCF014968D912A
:100C20009D910D90BC91A02D2481358146815781E5
:100C3000281739074A075B0718F4112341F00AC047
:100C400082179307A407B50740F4112319F061E058
:100C500070E005C06FEF7FEF02C060E070E0CB0195
:100C60001F910895DF93CF93CDB7DEB780918500B4
:100C700090918600009729F0E0918500F091860020
:100C80000995CF91DF910895DF93CF93CDB7DEB76C
:100C90008091870090918800009729F0E09187006B
:100CA000F09188000995CF91DF910895DF93CF935C
:100CB00000D0CDB7DEB789836A838981882F90E021
:100CC0000196DC018981882F90E00196FC019081DA
:100CD0008A81892B8C930F900F90CF91DF9108958B
:100CE000DF93CF9300D0CDB7DEB789836A83898144
:100CF000882F90E00196DC018981882F90E0019691
:100D0000FC018081982F8A81809589238C930F9094
:100D10000F90CF91DF910895DF93CF9300D00F9282
:100D2000CDB7DEB789836A834B838981882F90E0B2
:100D30000296DC018981882F90E00296FC01808177
:100D4000982F8A81809589238C938981882F90E0C0
:100D50000296DC018981882F90E00296FC012081B7
:100D60009B818A818923822B8C930F900F900F9007
:100D7000CF91DF910895DF93CF9300D0CDB7DEB749
:100D800089836A838981882F90E00296DC018981BA
:100D9000882F90E00296FC0190818A81892B8C93A8
:100DA0000F900F90CF91DF910895DF93CF9300D0F4
:100DB000CDB7DEB789836A838981882F90E0029658
:100DC000DC018981882F90E00296FC018081982FB8
:100DD0008A81809589238C930F900F90CF91DF911A
:100DE0000895DF93CF9300D0CDB7DEB789836A83B0
:100DF0008981882F90E00296DC018981882F90E01C
:100E00000296FC018081482F8A81282F30E081E002
:100E100090E0022E02C0880F991F0A94E2F7842BFB
:100E20008C930F900F90CF91DF910895DF93CF9324
:100E300000D0CDB7DEB789836A838981882F90E09F
:100E40000296DC018981882F90E00296FC01808166
:100E5000482F8A81282F30E081E090E0022E02C0E6
:100E6000880F991F0A94E2F7809584238C930F9042
:100E70000F90CF91DF910895DF93CF9300D0CDB73E
:100E8000DEB789836A838981882F90E0FC01908195
:100E90008A8189230F900F90CF91DF910895DF937E
:100EA000CF9300D0CDB7DEB79A838983E981FA81E9
:100EB000808160EF15DFE981FA81808160EF5BDF7F
:100EC000E981FA8181816FE00BDF0F900F90CF9164
:100ED000DF910895DF93CF9300D000D0CDB7DEB778
:100EE0009C838B831A8284E0898313C0EB81FC810D
:100EF000808160EF5ADFEB81FC8181816FE0BCDF94
:100F0000882321F0898183508A8306C089818F5F7D
:100F100089838981883050F38A8180938200EB81B4
:100F2000FC81808160EF27DF0F900F900F900F9072
:100F3000CF91DF910895DF93CF9300D0CDB7DEB787
:100F40009A838983E981FA8181816FE095DF882323
:100F500019F089819A81BEDF0F900F90CF91DF91B8
:100F60000895DF93CF9300D00F92CDB7DEB79B8368
:100F70008A838091820089831092820089810F90F8
:100F80000F900F90CF91DF910895DF93CF93CDB75E
:100F9000DEB7E2970FB6F894DEBF0FBECDBF9AABB7
:100FA00089ABE9A9FAA980818130A1F5E9A9FAA95B
:100FB0005281E9A9FAA98581282F30E081E090E0EB
:100FC00002C0880F991F2A95E2F7482FE9A9FAA9CC
:100FD0008381282F30E081E090E002C0880F991FC4
:100FE0002A95E2F7482BE9A9FAA98481282F30E055
:100FF00081E090E002C0880F991F2A95E2F7842BC8
:10100000982F852F692F52DEE9A9FAA9818160EF17
:101010004DDE0FC0E9A9FAA98081823051F4E9A917
:10102000FAA982816FEF42DEE9A9FAA981816FEF07
:101030003DDEE9A9FAA98281E9A9FAA99581692F7A
:10104000F5DE80E090E0AAEFB4E48DA79EA7AFA7FD
:10105000B8AB6DA57EA58FA598A92BEA3AEA4AEA16
:101060005EE3E0D9DC01CB0189A79AA7ABA7BCA7B7
:1010700069A57AA58BA59CA520E030E040E85FE358
:10108000CBDB88231CF481E088A78BC069A57AA5F7
:101090008BA59CA520E030E04FE753E463DB1816F6
:1010A0000CF076C06DA57EA58FA598A920E030E054
:1010B0004AE754E4AEDADC01CB018CA39DA3AEA3D6
:1010C000BFA36CA17DA18EA19FA120E030E04AE7E3
:1010D00053E4A8D9DC01CB0188A399A3AAA3BBA39D
:1010E00068A179A18AA19BA120E030E040E85FE3FC
:1010F00093DB88232CF481E090E09F8F8E8F3DC09E
:1011000068A179A18AA19BA120E03FEF4FE757E4B6
:1011100029DB181644F56CA17DA18EA19FA120E0CA
:1011200030E040E251E47ED9DC01CB01BC01CD01CD
:101130000E944800DC01CB019F8F8E8F0FC089E198
:1011400090E09D8F8C8F8C8D9D8D0197F1F79D8FF9
:101150008C8F8E8D9F8D01979F8F8E8F8E8D9F8D03
:10116000009769F724C068A179A18AA19BA10E9478
:101170004800DC01CB019F8F8E8F8E8D9F8D9B8FC2
:101180008A8F8A8D9B8D0197F1F79B8F8A8F0FC075
:1011900069A57AA58BA59CA50E944800DC01CB011E
:1011A00088A788A5898F898D8A95F1F7898FE9A904
:1011B000FAA98081813069F489A99AA963E3DDD015
:1011C00089A99AA962E3D9D089A99AA96CE2D5D054
:1011D00009C0E9A9FAA98081823021F489A99AA9D4
:1011E0006CE3CBD089A99AA96EE0C7D089A99AA946
:1011F00066E0C3D089A99AA961E0BFD080E090E001
:10120000AAEFB4E48D8B9E8BAF8BB88F6D897E89EE
:101210008F89988D2BEA3AEA4AEA5EE303D9DC012A
:10122000CB01898B9A8BAB8BBC8B69897A898B8933
:101230009C8920E030E040E85FE3EEDA88231CF48C
:1012400081E0888B8BC069897A898B899C8920E0B1
:1012500030E04FE753E486DA18160CF076C06D895B
:101260007E898F89988D20E030E04AE754E4D1D917
:10127000DC01CB018C879D87AE87BF876C857D8520
:101280008E859F8520E030E04AE753E4CBD8DC012F
:10129000CB0188879987AA87BB87688579858A85E6
:1012A0009B8520E030E040E85FE3B6DA88232CF449
:1012B00081E090E09F838E833DC0688579858A8533
:1012C0009B8520E03FEF4FE757E44CDA181644F5D2
:1012D0006C857D858E859F8520E030E040E251E47D
:1012E000A1D8DC01CB01BC01CD010E944800DC018A
:1012F000CB019F838E830FC089E190E09D838C8317
:101300008C819D810197F1F79D838C838E819F81D4
:1013100001979F838E838E819F81009769F724C0F8
:10132000688579858A859B850E944800DC01CB0110
:101330009F838E838E819F819B838A838A819B81F9
:101340000197F1F79B838A830FC069897A898B891A
:101350009C890E944800DC01CB01888B88898983A5
:1013600089818A95F1F78983E2960FB6F894DEBFFA
:101370000FBECDBFCF91DF9108950F931F93DF93E1
:10138000CF93CDB7DEB7C356D0400FB6F894DEBFCB
:101390000FBECDBFFE01EF59FF4F91838083FE0149
:1013A000ED59FF4F6083FE01EF59FF4F0190F0812F
:1013B000E02D8281FE01EF59FF4F0190F081E02D79
:1013C0009381692F33DDFE01EF59FF4F0190F081CA
:1013D000E02D8281FE01EF59FF4F0190F081E02D59
:1013E0009481692F23DDFE01EF59FF4F0190F081B9
:1013F000E02D8081813009F048C2FE01EF59FF4F96
:101400000190F081E02D2181FE01ED59FF4F808197
:10141000982F907F822F60EF492F7EDCFE01EF59DD
:10142000FF4F0190F081E02D8281FE01EF59FF4FC7
:101430000190F081E02D9581692FD3DCFE01E35A04
:10144000FF4F80E090E0A0E8BFE380839183A28318
:10145000B3838E01075A1F4FFE01E35AFF4F60818D
:101460007181828193812BEA3AEA4AEA5EE30E9423
:101470001202DC01CB01F80180839183A283B38344
:10148000FE01E75AFF4F608171818281938120E0E4
:1014900030E040E85FE3C0D9882334F4FE01E85A25
:1014A000FF4F81E08083DCC0FE01E75AFF4F60817F
:1014B00071818281938120E030E04FE753E452D97B
:1014C00018160CF0BDC0FE01E35AFF4F6081718118
:1014D0008281938120E030E04AE754E49AD8DC012D
:1014E000CB01FE01EC5AFF4F80839183A283B3832B
:1014F0008E01005B1F4FFE01EC5AFF4F608171812E
:101500008281938120E030E04AE753E40E94120296
:10151000DC01CB01F80180839183A283B383FE01B8
:10152000E05BFF4F608171818281938120E030E038
:1015300040E85FE371D9882344F4FE01E25BFF4F8A
:1015400081E090E09183808363C0FE01E05BFF4F08
:10155000608171818281938120E03FEF4FE757E402
:1015600001D918160CF043C0FE01EC5AFF4F608100
:1015700071818281938120E030E040E251E40E9459
:101580001202DC01CB018E01025B1F4FBC01CD01B9
:101590000E944800DC01CB01F801918380831FC0C9
:1015A000FE01E45BFF4F89E190E091838083FE01BF
:1015B000E45BFF4F808191810197F1F7FE01E45BCD
:1015C000FF4F91838083DE01A25BBF4FFE01E25B90
:1015D000FF4F80819181019711969C938E93FE011C
:1015E000E25BFF4F808191810097D1F64BC08E0165
:1015F000025B1F4FFE01E05BFF4F608171818281C2
:1016000093810E944800DC01CB01F8019183808323
:10161000DE01A65BBF4FFE01E25BFF4F808191813F
:1016200011969C938E93FE01E65BFF4F8081918122
:101630000197F1F7FE01E65BFF4F9183808322C0A3
:101640008E01085A1F4FFE01E75AFF4F60817181DA
:10165000828193810E944800DC01CB01F8018083E4
:10166000DE01A75BBF4FFE01E85AFF4F80818C93DC
:10167000FE01E75BFF4F80818A95F1F7FE01E75B92
:10168000FF4F8083FE01EF59FF4F0190F081E02D65
:101690008281FE01EF59FF4F0190F081E02D95818D
:1016A000692FC4DBFE01EB5BFF4F80E090E0A8EC0C
:1016B000B2E480839183A283B3838E010F5B1F4FBB
:1016C000FE01EB5BFF4F60817181828193812BEA88
:1016D0003AEA4AEA5EE30E941202DC01CB01F80119
:1016E00080839183A283B383FE01EF5BFF4F608110
:1016F00071818281938120E030E040E85FE38CD803
:10170000882334F481E0FE01E05CFF4F80839BC0BE
:10171000FE01EF5BFF4F608171818281938120E048
:1017200030E04FE753E41ED818160CF07DC0FE01E0
:10173000EB5BFF4F608171818281938120E030E01B
:101740004AE754E40E940903DC01CB018CAF9DAF52
:10175000AEAFBFAF6CAD7DAD8EAD9FAD20E030E0E4
:101760004AE753E40E941202DC01CB0188AF99AF33
:10177000AAAFBBAF68AD79AD8AAD9BAD20E030E0DC
:1017800040E85FE349D888232CF481E090E09FABE8
:101790008EAB3FC068AD79AD8AAD9BAD20E03FEF29
:1017A0004FE757E40E94B20318164CF56CAD7DADBF
:1017B0008EAD9FAD20E030E040E251E40E94120285
:1017C000DC01CB01BC01CD010E944800DC01CB0152
:1017D0009FAB8EAB0FC089E190E09DAB8CAB8CA929
:1017E0009DA90197F1F79DAB8CAB8EA99FA901979D
:1017F0009FAB8EAB8EA99FA9009769F72DC068ADEE
:1018000079AD8AAD9BAD0E944800DC01CB019FAB56
:101810008EAB8EA99FA99BAB8AAB8AA99BA9019786
:10182000F1F79BAB8AAB18C0FE01EF5BFF4F608105
:101830007181828193810E944800DC01CB01FE010D
:10184000E05CFF4F8083FE01E05CFF4F808189AB4D
:1018500089A98A95F1F789ABFE01EF59FF4F0190F5
:10186000F081E02D2181FE01ED59FF4F8081882F0D
:1018700090E082959295907F9827807F9827982F67
:10188000822F60EF492F48DA16C0FE01EF59FF4F53
:101890000190F081E02D8081823069F4FE01EF59E2
:1018A000FF4F0190F081E02D8181FE01ED59FF4F46
:1018B0006FEF408131DAFE01EF59FF4F0190F08167
:1018C000E02D8281FE01EF59FF4F0190F081E02D64
:1018D0009581692F86DA80E090E0A0E8BFE38DA7CC
:1018E0009EA7AFA7B8AB6DA57EA58FA598A92BEA3B
:1018F0003AEA4AEA5EE30E941202DC01CB0189A7C0
:101900009AA7ABA7BCA769A57AA58BA59CA520E043
:1019100030E040E85FE30E940C0488231CF481E07F
:1019200088A791C069A57AA58BA59CA520E030E089
:101930004FE753E40E94B20318160CF07BC06DA56C
:101940007EA58FA598A920E030E04AE754E40E94E4
:101950000903DC01CB018CA39DA3AEA3BFA36CA1A3
:101960007DA18EA19FA120E030E04AE753E40E94D0
:101970001202DC01CB0188A399A3AAA3BBA368A18F
:1019800079A18AA19BA120E030E040E85FE30E94BA
:101990000C0488232CF481E090E09F8F8E8F3FC051
:1019A00068A179A18AA19BA120E03FEF4FE757E40E
:1019B0000E94B20318164CF56CA17DA18EA19FA1C7
:1019C00020E030E040E251E40E941202DC01CB0151
:1019D000BC01CD010E944800DC01CB019F8F8E8F9E
:1019E0000FC089E190E09D8F8C8F8C8D9D8D01972C
:1019F000F1F79D8F8C8F8E8D9F8D01979F8F8E8F8E
:101A00008E8D9F8D009769F724C068A179A18AA166
:101A10009BA10E944800DC01CB019F8F8E8F8E8D91
:101A20009F8D9B8F8A8F8A8D9B8D0197F1F79B8F5E
:101A30008A8F0FC069A57AA58BA59CA50E94480036
:101A4000DC01CB0188A788A5898F898D8A95F1F75C
:101A5000898FFE01EF59FF4F0190F081E02D8281C7
:101A6000FE01EF59FF4F0190F081E02D9581692F24
:101A7000DDD980E090E0A8ECB2E48D8B9E8BAF8B3B
:101A8000B88F6D897E898F89988D2BEA3AEA4AEA68
:101A90005EE30E941202DC01CB01898B9A8BAB8B37
:101AA000BC8B69897A898B899C8920E030E040E889
:101AB0005FE30E940C0488231CF481E0888B91C0B2
:101AC00069897A898B899C8920E030E04FE753E46B
:101AD0000E94B20318160CF07BC06D897E898F8935
:101AE000988D20E030E04AE754E40E940903DC01CD
:101AF000CB018C879D87AE87BF876C857D858E8562
:101B00009F8520E030E04AE753E40E941202DC01A6
:101B1000CB0188879987AA87BB87688579858A855D
:101B20009B8520E030E040E85FE30E940C048823BE
:101B30002CF481E090E09F838E833FC06885798597
:101B40008A859B8520E03FEF4FE757E40E94B20370
:101B500018164CF56C857D858E859F8520E030E0DC
:101B600040E251E40E941202DC01CB01BC01CD0134
:101B70000E944800DC01CB019F838E830FC089E166
:101B800090E09D838C838C819D810197F1F79D83EB
:101B90008C838E819F8101979F838E838E819F810D
:101BA000009769F724C0688579858A859B850E949E
:101BB0004800DC01CB019F838E838E819F819B83B4
:101BC0008A838A819B810197F1F79B838A830FC067
:101BD00069897A898B899C890E944800DC01CB0144
:101BE000888B8889898389818A95F1F78983CD5982
:101BF000DF4F0FB6F894DEBF0FBECDBFCF91DF91A0
:101C00001F910F9108950F931F93DF93CF93CDB73B
:101C1000DEB7C356D0400FB6F894DEBF0FBECDBFBF
:101C2000FE01EF59FF4F91838083FE01ED59FF4F75
:101C30006083FE01EF59FF4F0190F081E02D82811A
:101C4000FE01EF59FF4F0190F081E02D9381692F44
:101C5000C8D8FE01EF59FF4F0190F081E02D82813D
:101C6000FE01EF59FF4F0190F081E02D9481692F23
:101C7000DDD8FE01EF59FF4F0190F081E02D80810A
:101C8000813009F052C2FE01EF59FF4F0190F081FF
:101C9000E02D2181FE01ED59FF4F8081982F907F2B
:101CA000822F60EF492F38D8FE01EF59FF4F019086
:101CB000F081E02D8281FE01EF59FF4F0190F0810C
:101CC000E02D9581692F8DD8FE01E35AFF4F80E00A
:101CD00090E0A0E8BFE380839183A283B3838E0169
:101CE000075A1F4FFE01E35AFF4F608171818281C5
:101CF00093812BEA3AEA4AEA5EE30E941202DC018F
:101D0000CB01F80180839183A283B383FE01E75A5C
:101D1000FF4F608171818281938120E030E040E853
:101D20005FE30E940C04882334F4FE01E85AFF4F5D
:101D300081E08083E0C0FE01E75AFF4F608171813E
:101D40008281938120E030E04FE753E40E94B203A8
:101D500018160CF0C0C0FE01E35AFF4F608171817C
:101D60008281938120E030E04AE754E40E94090335
:101D7000DC01CB01FE01EC5AFF4F80839183A283EB
:101D8000B3838E01005B1F4FFE01EC5AFF4F608151
:101D900071818281938120E030E04AE753E40E9420
:101DA0001202DC01CB01F80180839183A283B3830B
:101DB000FE01E05BFF4F608171818281938120E0B1
:101DC00030E040E85FE30E940C04882344F4FE0105
:101DD000E25BFF4F81E090E09183808364C0FE016D
:101DE000E05BFF4F608171818281938120E03FEF52
:101DF0004FE757E40E94B20318160CF043C0FE01EF
:101E0000EC5AFF4F608171818281938120E030E044
:101E100040E251E40E941202DC01CB018E01025B20
:101E20001F4FBC01CD010E944800DC01CB01F8012D
:101E3000918380831FC0FE01E45BFF4F89E190E046
:101E400091838083FE01E45BFF4F80819181019744
:101E5000F1F7FE01E45BFF4F91838083DE01A25B1B
:101E6000BF4FFE01E25BFF4F808191810197119688
:101E70009C938E93FE01E25BFF4F808191810097DE
:101E8000D1F64BC08E01025B1F4FFE01E05BFF4F9E
:101E900060817181828193810E944800DC01CB01C5
:101EA000F80191838083DE01A65BBF4FFE01E25BF8
:101EB000FF4F8081918111969C938E93FE01E65B8A
:101EC000FF4F808191810197F1F7FE01E65BFF4FA3
:101ED0009183808322C08E01085A1F4FFE01E75A6A
:101EE000FF4F60817181828193810E944800DC01F3
:101EF000CB01F8018083DE01A75BBF4FFE01E85AEA
:101F0000FF4F80818C93FE01E75BFF4F80818A95B4
:101F1000F1F7FE01E75BFF4F8083FE01EF59FF4FB2
:101F20000190F081E02D8281FE01EF59FF4F019079
:101F3000F081E02D9581692F0E941607FE01EB5B71
:101F4000FF4F80E090E0A8ECB2E480839183A2830D
:101F5000B3838E010F5B1F4FFE01EB5BFF4F608170
:101F60007181828193812BEA3AEA4AEA5EE30E9418
:101F70001202DC01CB01F80180839183A283B38339
:101F8000FE01EF5BFF4F608171818281938120E0D0
:101F900030E040E85FE30E940C04882334F481E0E1
:101FA000FE01E05CFF4F80839DC0FE01EF5BFF4FB1
:101FB000608171818281938120E030E04FE753E4BA
:101FC0000E94B20318160CF07EC0FE01EB5BFF4FBF
:101FD000608171818281938120E030E04AE754E49E
:101FE0000E940903DC01CB018CAF9DAFAEAFBFAF48
:101FF0006CAD7DAD8EAD9FAD20E030E04AE753E49F
:102000000E941202DC01CB0188AF99AFAAAFBBAF2F
:1020100068AD79AD8AAD9BAD20E030E040E85FE38C
:102020000E940C0488232CF481E090E09FAB8EABDF
:102030003FC068AD79AD8AAD9BAD20E03FEF4FE783
:1020400057E40E94B20318164CF56CAD7DAD8EAD11
:102050009FAD20E030E040E251E40E941202DC013A
:10206000CB01BC01CD010E944800DC01CB019FAB3C
:102070008EAB0FC089E190E09DAB8CAB8CA99DA984
:102080000197F1F79DAB8CAB8EA99FA901979FABF0
:102090008EAB8EA99FA9009769F72DC068AD79AD69
:1020A0008AAD9BAD0E944800DC01CB019FAB8EAB9B
:1020B0008EA99FA99BAB8AAB8AA99BA90197F1F72F
:1020C0009BAB8AAB18C0FE01EF5BFF4F6081718153
:1020D000828193810E944800DC01CB01FE01E05C1B
:1020E000FF4F8083FE01E05CFF4F808189AB89A9AF
:1020F0008A95F1F789ABFE01EF59FF4F0190F0810E
:10210000E02D2181FE01ED59FF4F8081882F90E065
:1021100082959295907F9827807F9827982F822F7D
:1021200060EF492F0E948C0617C0FE01EF59FF4F48
:102130000190F081E02D8081823071F4FE01EF5931
:10214000FF4F0190F081E02D8181FE01ED59FF4F9D
:102150006FEF40810E948C06FE01EF59FF4F019006
:10216000F081E02D8281FE01EF59FF4F0190F08157
:10217000E02D9581692F0E94F10680E090E0A0E8B3
:10218000BFE38DA79EA7AFA7B8AB6DA57EA58FA512
:1021900098A92BEA3AEA4AEA5EE30E941202DC01BD
:1021A000CB0189A79AA7ABA7BCA769A57AA58BA5E0
:1021B0009CA520E030E040E85FE30E940C04882307
:1021C0001CF481E088A791C069A57AA58BA59CA580
:1021D00020E030E04FE753E40E94B20318160CF001
:1021E0007BC06DA57EA58FA598A920E030E04AE7C9
:1021F00054E40E940903DC01CB018CA39DA3AEA390
:10220000BFA36CA17DA18EA19FA120E030E04AE791
:1022100053E40E941202DC01CB0188A399A3AAA374
:10222000BBA368A179A18AA19BA120E030E040E88E
:102230005FE30E940C0488232CF481E090E09F8FE0
:102240008E8F3FC068A179A18AA19BA120E03FEFBA
:102250004FE757E40E94B20318164CF56CA17DA11C
:102260008EA19FA120E030E040E251E40E941202E2
:10227000DC01CB01BC01CD010E944800DC01CB0197
:102280009F8F8E8F0FC089E190E09D8F8C8F8C8DFA
:102290009D8D0197F1F79D8F8C8F8E8D9F8D01976E
:1022A0009F8F8E8F8E8D9F8D009769F724C068A1B8
:1022B00079A18AA19BA10E944800DC01CB019F8FDC
:1022C0008E8F8E8D9F8D9B8F8A8F8A8D9B8D019790
:1022D000F1F79B8F8A8F0FC069A57AA58BA59CA566
:1022E0000E944800DC01CB0188A788A5898F898DD1
:1022F0008A95F1F7898FFE01EF59FF4F0190F08128
:10230000E02D8281FE01EF59FF4F0190F081E02D19
:102310009581692F0E94160780E090E0A8ECB2E456
:102320008D8B9E8BAF8BB88F6D897E898F89988DB1
:102330002BEA3AEA4AEA5EE30E941202DC01CB0190
:10234000898B9A8BAB8BBC8B69897A898B899C89A9
:1023500020E030E040E85FE30E940C0488231CF496
:1023600081E0888B91C069897A898B899C8920E07A
:1023700030E04FE753E40E94B20318160CF07BC024
:102380006D897E898F89988D20E030E04AE754E49A
:102390000E940903DC01CB018C879D87AE87BF8734
:1023A0006C857D858E859F8520E030E04AE753E48B
:1023B0000E941202DC01CB0188879987AA87BB871C
:1023C000688579858A859B8520E030E040E85FE379
:1023D0000E940C0488232CF481E090E09F838E837C
:1023E0003FC0688579858A859B8520E03FEF4FE770
:1023F00057E40E94B20318164CF56C857D858E85D6
:102400009F8520E030E040E251E40E941202DC01AE
:10241000CB01BC01CD010E944800DC01CB019F83B0
:102420008E830FC089E190E09D838C838C819D8198
:102430000197F1F79D838C838E819F8101979F8304
:102440008E838E819F81009769F724C06885798586
:102450008A859B850E944800DC01CB019F838E8387
:102460008E819F819B838A838A819B810197F1F76B
:102470009B838A830FC069897A898B899C890E9492
:102480004800DC01CB01888B8889898389818A9502
:10249000F1F78983CD59DF4F0FB6F894DEBF0FBE39
:1024A000CDBFCF91DF911F910F910895DF93CF930F
:1024B00000D000D0CDB7DEB79A8389836B834C837D
:1024C0008C81882F90E00197FC01E158FF4F9081AB
:1024D0008B81890F282F215089819A81622F0E9438
:1024E000BD090F900F900F900F90CF91DF9108953D
:1024F000DF93CF9300D000D00F92CDB7DEB79B8390
:102500008A837D836C83198210C08981282F30E0F3
:102510008C819D81FC01E20FF31F208189818F5FF7
:1025200089838A819B81622F6EDB8981282F30E02D
:102530008C819D81FC01E20FF31F8081882329F7A4
:102540000F900F900F900F900F90CF91DF91089503
:10255000DF93CF93CDB7DEB72B970FB6F894DEBFDE
:102560000FBECDBF198283E38C8383E38D83CE01BD
:1025700004960E944F0787E0898786E08A8785E076
:102580008B8789E3888786E38F8381E08E83CE0102
:1025900006960E94C507CE01069661E041E086DFFF
:1025A000CE01069620E630E0B901A2DFCE01069604
:1025B00061E042E07BDFCE0106962AE630E0B90119
:1025C00097DFCE0104960E949B07CE0104960E94DD
:1025D000B107898389818823A1F38981282F30E07D
:1025E00000D000D000D0EDB7FEB73196CE010296F4
:1025F0009183808384E790E093838283358324836F
:102600006ED08DB79EB706960FB6F8949EBF0FBEDC
:102610008DBFCE0106969E012E5F3F4FB90168DF48
:1026200083E36FE00E943C07282F30E000D000D009
:1026300000D0EDB7FEB73196CE010296918380832C
:1026400084E790E0938382833583248348D08DB7D9
:102650009EB706960FB6F8949EBF0FBE8DBFCE01F3
:1026600006969E012E5F3F4FB90142DF1982A9CF26
:102670002F923F924F925F926F927F928F929F9292
:10268000AF92BF92CF92DF92EF92FF920F931F9380
:10269000CF93DF93CDB7DEB7CA1BDB0B0FB6F89431
:1026A000DEBF0FBECDBF09942A88398848885F8471
:1026B0006E847D848C849B84AA84B984C884DF80E2
:1026C000EE80FD800C811B81AA81B981CE0FD11DC6
:1026D0000FB6F894DEBF0FBECDBFED010895AEE09A
:1026E000B0E0E4E7F3E1D2CF0D891E8986E08C8368
:1026F0001A8309838FEF9FE79E838D839E01275E58
:102700003F4FCE0101966F89788DA90109D02F81A5
:102710003885020F131FF80110822E96E4E0D2CF05
:10272000ABE0B0E0E5E9F3E1A3CF3C012B015A01B6
:10273000FC0117821682838181FD03C06FEF7FEF5A
:10274000B9C19AE0892E1E010894211C311CF301A5
:102750002381F20123FD859123FF81912F0188239D
:1027600009F4A5C1853239F423FD859123FF8191B8
:102770002F01853221F490E0B301B6D1E8CF982F34
:10278000FF24EE249924FFE1FF15D0F09B3269F07D
:102790009C3228F4903259F0933291F40EC09D325D
:1027A00049F0903369F441E024C052E0F52A84E016
:1027B000F82A28C098E0F92A25C0E0E1FE2A22C0C4
:1027C000F7FC29C0892F80538A3070F4F6FE05C0CB
:1027D000989C902C1124980E15C0E89CE02C112494
:1027E000E80EF0E2FF2A0EC09E3229F4F6FC5FC12B
:1027F00040E4F42A07C09C3619F450E8F52A02C0D8
:10280000983649F4F20123FD959123FF91912F0110
:10281000992309F0B8CF892F8554833018F080525E
:10282000833038F444E050E0A40EB51E5FE35983D2
:102830000FC0933631F0933779F0933509F052C0D9
:102840001FC0F5018081898342E050E0A40EB51ECF
:10285000610101E010E011C0F501C080D180F6FCFB
:1028600003C06FEF7FEF02C0692D70E042E050E0DF
:10287000A40EB51EC6012DD18C015FE7F52213C051
:10288000F501C080D180F6FC03C06FEF7FEF02C07E
:10289000692D70E042E050E0A40EB51EC6010ED1D5
:1028A0008C0150E8F52AF3FE06C018C080E290E0E3
:1028B000B3011AD1EA948E2D90E008171907B0F3EE
:1028C0000DC0F601F7FC8591F7FE81916F0190E054
:1028D000B3010AD1E110EA9401501040011511052D
:1028E00081F7E2C0943611F0993661F5F7FE08C021
:1028F000F501208131814281538184E090E00AC05A
:10290000F501808191819C01442737FD4095542F2A
:1029100082E090E0A80EB91E9FE6F92257FF09C099
:1029200050954095309521953F4F4F4F5F4FE0E8D0
:10293000FE2ACA01B901A1012AE030E001D1D82E56
:10294000D2183FC0953729F41F2D1F7E2AE030E0B2
:102950001DC01F2D197F9F3661F0903720F49835E8
:1029600009F0A5C00FC0903739F0983709F09FC023
:1029700004C028E030E00AC0106114FD146020E1BA
:1029800030E004C014FD166020E132E017FF08C0FB
:10299000F501608171818281938144E050E008C03B
:1029A000F50180819181BC0180E090E042E050E03F
:1029B000A40EB51EA101C4D0D82ED2188FE7F82ED0
:1029C000F122F6FE0BC05EEFF522D91438F4F4FEC6
:1029D00007C0F2FC05C08FEEF82202C01D2D01C019
:1029E000192DF4FE0DC0FE01ED0DF11D8081803327
:1029F00019F499EEF92208C01F5FF2FE05C003C06A
:102A00008F2D867809F01F5F0F2DF3FC13C0F0FEA9
:102A10000EC01E1510F09D2C0AC09D2C9E0C911A04
:102A20001E2D05C080E290E0B3015ED01F5F1E1531
:102A3000C8F304C01E1510F4E11A01C0EE2404FF0F
:102A40000EC080E390E0B3014FD002FF1BC001FD38
:102A500003C088E790E00EC088E590E00BC0802FAF
:102A6000867881F001FF02C08BE201C080E2F7FCB2
:102A70008DE290E0B30138D005C080E390E0B3016F
:102A800033D09A94D914C8F3DA94F101ED0DF11D05
:102A9000808190E0B30128D0DD20B1F705C080E24D
:102AA00090E0B30121D0EA94EE20C9F750CEF301B3
:102AB00066817781CB012B96E2E1F6CDFC01059092
:102AC000615070400110D8F7809590958E0F9F1F30
:102AD0000895FC016150704001900110D8F7809575
:102AE00090958E0F9F1F08950F931F93CF93DF93A1
:102AF0008C01EB018B8181FF1BC082FF0DC02E81F9
:102B00003F818C819D812817390764F4E881F98120
:102B10000193F983E88306C0E885F985802F09953C
:102B2000892B31F48E819F8101969F838E8302C011
:102B30000FEF1FEFC801DF91CF911F910F91089503
:102B4000FA01AA27283051F1203181F1E8946F93DE
:102B50006E7F6E5F7F4F8F4F9F4FAF4FB1E03ED084
:102B6000B4E03CD0670F781F891F9A1FA11D680F22
:102B7000791F8A1F911DA11D6A0F711D811D911D55
:102B8000A11D20D009F468943F912AE0269F1124CA
:102B90003019305D3193DEF6CF010895462F47702E
:102BA000405D4193B3E00FD0C9F7F6CF462F4F7089
:102BB000405D4A3318F0495D31FD4052419302D0E7
:102BC000A9F7EACFB4E0A69597958795779567958D
:102BD000BA95C9F700976105710508959B01AC018D
:102BE0000A2E06945795479537952795BA95C9F7B4
:102BF000620F731F841F951FA01D0895F894FFCFC7
:102C00007878787820787878780079797979207967
:102C1000797979002578000000000000000000802C
:022C2000C000F2
:00000001FF
