:1000000029C0000042C0000040C000003EC0000007
:1000100005C100003AC0000038C0000036C0000032
:1000200034C0000032C00000E7C000002EC0000055
:100030002CC000002AC0000028C0000026C000001C
:1000400024C0000022C0000020C000001EC000002C
:100050001CC0000011241FBECFE5D8E0DEBFCDBF1D
:1000600010E0A0E6B0E0EEE7F2E002C005900D92ED
:10007000A036B107D9F710E0A0E6B0E001C01D92AC
:10008000A636B107E1F7DCD0F8C0BACFDF93CF9343
:1000900000D00F92CDB7DEB789837B836A83E0E41B
:1000A000F0E08A819B81892F99278083E9E2F0E043
:1000B0008A818083EAE2F0E088E18083A0E4B0E016
:1000C000E0E4F0E080818F7B8C93E0E4F0E08EEB65
:1000D00080830F900F900F90CF91DF910895DF9361
:1000E000CF930F92CDB7DEB78983EBE2F0E080814A
:1000F0008823DCF7ECE2F0E080810F90CF91DF9174
:100100000895DF93CF9300D0CDB7DEB789836A839C
:100110008981882F90E00196DC018981882F90E009
:100120000196FC0190818A81892B8C930F900F900E
:10013000CF91DF910895DF93CF9300D00F92CDB789
:10014000DEB789836A834B838981882F90E002968A
:10015000DC018981882F90E00296FC018081482F84
:100160008A81282F30E081E090E002C0880F991F3B
:100170002A95E2F7809584238C938981882F90E0DB
:100180000296DC018981882F90E00296FC01808133
:10019000482F8B81282F30E08A81882F90E0B90189
:1001A00002C0660F771F8A95E2F7CB01842B8C93F0
:1001B0000F900F900F90CF91DF910895DF93CF9321
:1001C00000D0CDB7DEB789836A838981882F90E01C
:1001D000FC018081482F8A81282F30E081E090E067
:1001E000022E02C0880F991F0A94E2F784230F9011
:1001F0000F90CF91DF910895DF93CF93CDB7DEB706
:100200008091620090916300009729F0E091620074
:10021000F09163000995CF91DF910895DF93CF931B
:10022000CDB7DEB78091640090916500009729F00A
:10023000E0916400F09165000995CF91DF910895F8
:10024000DF93CF930F92CDB7DEB780E060E875E221
:100250001DDF86E361E055DF80E041DF8136E1F7B5
:1002600086E360E0ABDF1982882311F481E08983A3
:0E02700086E360E049815FDFEFCFF894FFCFB7
:00000001FF
