:1000000029C0000042C0000040C000003EC0000007
:10001000ABC000003AC0000038C0000036C000008D
:1000200034C0000032C000008DC000002EC00000AF
:100030002CC000002AC0000028C0000026C000001C
:1000400024C0000022C0000020C000001EC000002C
:100050001CC0000011241FBECFE5D8E0DEBFCDBF1D
:1000600010E0A0E6B0E0EEEAF1E002C005900D92EB
:10007000A036B107D9F710E0A0E6B0E001C01D92AC
:10008000A636B107E1F782D090C0BACFDF93CF9305
:1000900000D00F92CDB7DEB789837B836A83E0E41B
:1000A000F0E08A819B81892F99278083E9E2F0E043
:1000B0008A818083EAE2F0E088E18083A0E4B0E016
:1000C000E0E4F0E080818F7B8C93E0E4F0E08EEB65
:1000D00080830F900F900F90CF91DF910895DF9361
:1000E000CF9300D0CDB7DEB789836A83EBE2F0E02F
:1000F0008081882F90E0807290700097B9F3ECE2D5
:10010000F0E08A8180830F900F90CF91DF91089566
:10011000DF93CF9300D0CDB7DEB789836A8389811F
:10012000882F90E00196DC018981882F90E001966C
:10013000FC0190818A81892B8C930F900F90CF9135
:10014000DF910895DF93CF93CDB7DEB78091620042
:1001500090916300009729F0E0916200F0916300B4
:100160000995CF91DF910895DF93CF93CDB7DEB797
:100170008091640090916500009729F0E0916400FF
:10018000F09165000995CF91DF910895DF93CF93AA
:10019000CDB7DEB780E060E875E278DF86E361E046
:0E01A000B7DF80E061E69BDFFCCFF894FFCF75
:00000001FF
