:100000000C942A000C9447000C9447000C94470071
:100010000C945B000C9447000C9447000C94470030
:100020000C9447000C9447000C9449000C94470032
:100030000C9447000C9447000C9447000C94470024
:100040000C9447000C9447000C9447000C94470014
:100050000C94470011241FBECFE5D8E0DEBFCDBF12
:1000600010E0A0E6B0E0E0E8F2E102C005900D92F9
:10007000AE36B107D9F710E0AEE6B0E001C01D9290
:10008000A339B107E1F70E943F060C943E090C9496
:100090000000DF93CF93CDB7DEB780918B009091B6
:1000A0008C00009729F0E0918B00F0918C0009956D
:1000B000CF91DF910895DF93CF93CDB7DEB78091D5
:1000C0008D0090918E00009729F0E0918D00F091C5
:1000D0008E000995CF91DF910895DF93CF9300D0E3
:1000E00000D00F92CDB7DEB79B838A8381E08983EE
:1000F0008A819B81009709F414C1EA81FB81808188
:10010000282F30E03D832C838C819D8181309105A7
:1001100009F409C12C813D812230310509F480C0E8
:100120008C819D81009709F0FEC0A3E5B0E0E3E576
:10013000F0E08081282FEA81FB8182818695882FDB
:1001400090E0002496958795079496958795079457
:10015000982F802D822B8C93A3E5B0E0E3E5F0E0AF
:100160008081282FEA81FB818281882F90E0817035
:100170009070880F991F880F991F880F991F822BE5
:100180008C93A3E5B0E0E3E5F0E09081EA81FB81A8
:100190008181892B8C93A3E5B0E0E3E5F0E08081D9
:1001A000282FEA81FB818381882F90E082959295A8
:1001B000907F9827807F9827822B8C93A9E5B0E0C9
:1001C000E9E5F0E08081482FEA81FB818481282FD6
:1001D00030E081E090E002C0880F991F2A95E2F795
:1001E000842B8C93A8E5B0E0E8E5F0E08081482F0F
:1001F000EA81FB818481282F30E081E090E0022EAB
:1002000002C0880F991F0A94E2F7842B8C93EA812D
:10021000FB818581968190938C0080938B0083C0B5
:10022000A5E4B0E0E5E4F0E08081282FEA81FB81DD
:1002300082818695882F90E0002496958795079473
:10024000969587950794982F802D822B8C93A5E403
:10025000B0E0E5E4F0E08081282FEA81FB81828133
:10026000882F90E081709070880F991F880F991FD8
:10027000880F991F822B8C93A5E4B0E0E5E4F0E0B1
:100280009081EA81FB818181892B8C93A5E4B0E088
:10029000E5E4F0E08081282FEA81FB818381882FCB
:1002A00090E082959295907F9827807F9827822B67
:1002B0008C93A9E5B0E0E9E5F0E08081482FEA8180
:1002C000FB818481882F90E09C012A5F3F4F81E071
:1002D00090E002C0880F991F2A95E2F7842B8C9337
:1002E000A8E5B0E0E8E5F0E08081482FEA81FB81F5
:1002F0008481882F90E09C012A5F3F4F81E090E04D
:10030000022E02C0880F991F0A94E2F7842B8C9367
:10031000EA81FB818581968190938E0080938D0088
:1003200002C08DEC898389810F900F900F900F9000
:100330000F90CF91DF910895DF93CF93CDB7DEB7C4
:1003400027970FB6F894DEBF0FBECDBF9B838A837D
:100350007D836C8381E089838A819B81009719F179
:10036000EA81FB818081282F30E03F832E838E81BC
:100370009F8181309105C9F02E813F812230310566
:1003800059F08E819F81009781F4E2E5F0E0808151
:10039000EC81FD81808309C0E4E4F0E08081EC81A0
:1003A000FD81808302C08DEC8983898127960FB6F9
:1003B000F894DEBF0FBECDBFCF91DF910895DF93DC
:1003C000CF9300D000D000D0CDB7DEB79B838A8317
:1003D0006C8381E089838A819B810097F9F0EA81AF
:1003E000FB818081282F30E03E832D838D819E818B
:1003F00081309105A9F02D813E812230310549F0EF
:100400008D819E81009761F4E2E5F0E08C8180832C
:1004100007C0E4E4F0E08C81808302C08DEC898326
:10042000898126960FB6F894DEBF0FBECDBFCF915F
:10043000DF910895DF93CF93CDB7DEB729970FB63D
:10044000F894DEBF0FBECDBF9B838A837D836C8310
:1004500081E089838A819B81009709F495C0EA81B4
:10046000FB818081282F30E039872887888599850E
:100470008130910509F48AC02885398522303105FB
:1004800009F441C088859985009709F07FC0E8E5A7
:10049000F0E08081482F50E0EA81FB818481282FA1
:1004A00030E081E090E0022E02C0880F991F0A948C
:1004B000E2F780959095842395231F8218161906DC
:1004C00014F491E09F83EC81FD812F812083EC81E6
:1004D000FD818081882309F459C0A8E5B0E0E8E5F2
:1004E000F0E08081482FEA81FB818481282F30E071
:1004F00081E090E0022E02C0880F991F0A94E2F773
:10050000842B8C9343C0E8E5F0E08081482F50E0D5
:10051000EA81FB818481882F90E09C012A5F3F4F14
:1005200081E090E0022E02C0880F991F0A94E2F742
:1005300080959095842395231E821816190614F42D
:1005400031E03E83EC81FD818E818083EC81FD81F1
:1005500080818823D9F0A8E5B0E0E8E5F0E080816B
:10056000482FEA81FB818481882F90E09C012A5FDB
:100570003F4F81E090E0022E02C0880F991F0A943D
:10058000E2F7842B8C9302C08DEC898389812996B4
:100590000FB6F894DEBF0FBECDBFCF91DF910895A7
:1005A000DF93CF9300D000D000D0CDB7DEB79B83D0
:1005B0008A836C8381E089838A819B810097F9F02B
:1005C000EA81FB818081282F30E03E832D838D815D
:1005D0009E8181309105A9F02D813E812230310527
:1005E00049F08D819E81009761F4ECE5F0E08C810B
:1005F000808307C0E3E4F0E08C81808302C08DEC4F
:100600008983898126960FB6F894DEBF0FBECDBFD1
:10061000CF91DF910895DF93CF9300D000D00F9258
:10062000CDB7DEB79B838A8381E089838A819B81F2
:10063000009709F483C0EA81FB818081282F30E094
:100640003D832C838C819D818130910509F46DC09F
:100650002C813D8122303105A1F18C819D81009753
:1006600009F063C0E3E5F0E01082A9E5B0E0E9E558
:10067000F0E08081482FEA81FB818481282F30E0DF
:1006800081E090E002C0880F991F2A95E2F78095DB
:1006900084238C93A8E5B0E0E8E5F0E08081482F62
:1006A000EA81FB818481282F30E081E090E0022EF6
:1006B00002C0880F991F0A94E2F7809584238C93D7
:1006C00034C0E5E4F0E01082A9E5B0E0E9E5F0E04F
:1006D0008081482FEA81FB818481882F90E09C01F2
:1006E0002A5F3F4F81E090E002C0880F991F2A9552
:1006F000E2F7809584238C93A8E5B0E0E8E5F0E08C
:100700008081482FEA81FB818481882F90E09C01C1
:100710002A5F3F4F81E090E0022E02C0880F991FB0
:100720000A94E2F7809584238C9310928C001092A7
:100730008B0010928E0010928D0002C08DEC898388
:1007400089810F900F900F900F900F90CF91DF91B4
:100750000895DF93CF9300D0CDB7DEB71A82198208
:100760001FC089819A81880F991FFC01E259FF4FB0
:1007700080819181009779F089819A81880F991FF2
:10078000FC01E259FF4F0190F081E02D82819381BD
:1007900001979383828389819A8101969A838983C1
:1007A00089819A8183309105E4F289E790E060E0E5
:1007B0000E94DF0189E790E06EE40E94D002789405
:1007C0000F900F90CF91DF910895DF93CF9300D0DA
:1007D00000D000D0CDB7DEB78A837C836B835E8385
:1007E0004D8319828B819C81CC01A0E0B0E0809385
:1007F000740090937500A0937600B09377001092E8
:100800007C0083E080937A0089EA93E090937F00F4
:1008100080937E001092790081E080937D00109299
:100820007B0089E790E00E946D0089E790E060E03E
:100830000E94DF0189E790E06EE40E94D002789484
:10084000898126960FB6F894DEBF0FBECDBFCF913B
:10085000DF910895DF93CF93CDB7DEB72A970FB618
:10086000F894DEBF0FBECDBF9D838C837F836E83E4
:1008700048873A872987F8941B82809178008330D3
:1008800008F053C0EC81FD8188858483EC81FD8173
:1008900089859A85968385838E819F81CC01A0E08E
:1008A000B0E0209174003091750040917600509135
:1008B0007700BC01CD010E940809DA01C901EC8171
:1008C000FD8191838083EC81FD8180819181EC8128
:1008D000FD8193838283809178008F5F809378007D
:1008E0001A8219821CC089819A81880F991FFC0184
:1008F000E259FF4F80819181009761F489819A814B
:10090000880F991FFC01E259FF4F8C819D819183D3
:1009100080830DC089819A8101969A838983898118
:100920009A8183309105FCF202C082E08B83789437
:100930008B812A960FB6F894DEBF0FBECDBFCF9144
:10094000DF910895DF93CF93CDB7DEB727970FB62A
:10095000F894DEBF0FBECDBF9F838E831D82F894B7
:100960001C821B82809178008150809378001A82CB
:10097000198221C089819A81880F991FFC01E2594F
:10098000FF4F208131818E819F812817390771F4B3
:1009900089819A81880F991FFC01E259FF4F1182CA
:1009A000108281E090E09C838B830AC089819A81C8
:1009B00001969A83898389819A8183309105D4F243
:1009C00078948B819C81009711F483E08D838D81D5
:1009D00027960FB6F894DEBF0FBECDBFCF91DF9143
:1009E0000895DF93CF9300D00F92CDB7DEB71B826F
:1009F000F8941A82198281C089819A81880F991F7F
:100A0000FC01E259FF4F80819181009709F470C089
:100A100089819A81880F991FFC01E259FF4F01904B
:100A2000F081E02D82819381181619060CF460C0C4
:100A300089819A81880F991FFC01E259FF4F01902B
:100A4000F081E02D0580F681E02D80E090E00995B1
:100A500089819A81880F991FFC01E259FF4F01900B
:100A6000F081E02D84818823D9F480917800815031
:100A70008093780089819A81880F991FFC01E2593F
:100A8000FF4F0190F081E02D1682158289819A81B5
:100A9000880F991FFC01E259FF4F1182108228C074
:100AA00089819A81880F991FFC01E259FF4FA0812B
:100AB000B18189819A81880F991FFC01E259FF4F0A
:100AC0000190F081E02D828193819C0189819A813E
:100AD000880F991FFC01E259FF4F0190F081E02D32
:100AE00080819181820F931F13969C938E9312970E
:100AF00089819A8101969A83898389819A81833039
:100B000091050CF479CF78948B810F900F900F9012
:100B1000CF91DF910895DF93CF9300D00F92CDB79F
:100B2000DEB71B82F89489E790E00E946D001A827C
:100B300019820EC089819A81880F991FFC01E259A0
:100B4000FF4F1182108289819A8101969A8389834D
:100B500089819A81833091056CF378948B810F9011
:100B60000F900F90CF91DF910895DF93CF9300D036
:100B7000CDB7DEB79A838983409190008091600061
:100B8000909161002AE030E0B9010E94F508982FA9
:100B9000842F692F0E94F00680916000909161007F
:100BA0008B3391056CF08091620090916300019607
:100BB0009093630080936200109261001092600035
:100BC0008091600090916100019690936100809304
:100BD00060000F900F90CF91DF910895DF93CF9336
:100BE00000D0CDB7DEB79A83898340919100809180
:100BF0006000909161002AE030E0B9010E94F508A0
:100C0000CB01982F842F692F0E94F0060F900F9030
:100C1000CF91DF910895DF93CF9300D0CDB7DEB7AA
:100C20009A83898340919200809162009091630041
:100C30002AE030E0B9010E94F508982F842F692F2F
:100C40000E94F00640918F00E0916200F0916300F5
:100C50002AE030E0CF01B9010E94F508CB01282F2E
:100C6000CF0101969093630080936200842F622FDE
:100C70000E94F0060F900F90CF91DF910895DF93BF
:100C8000CF93CDB7DEB765970FB6F894DEBF0FBE32
:100C9000CDBF80E065E070E040E050E00E94E503F9
:100CA00020E930E083E361E0A9010E948A0621E99E
:100CB00030E080E361E0A9010E948A0622E930E089
:100CC00089E361E0A9010E948A062FE830E086E30B
:100CD00061E0A9010E948A0625EB35E0CE0101966C
:100CE00064EF71E041E00E942A04CE0108962EEEE6
:100CF00035E068E873E141E00E942A04CE010F96D6
:100D00002BE036E060E177E241E00E942A040E9495
:100D1000F104FDCFDF93CF9300D000D000D0CDB74A
:100D2000DEB78B836C835E834D8381E08A83198277
:100D30000EC08981882F90E0880F991FFC01EF5722
:100D4000FF4F8081882331F089818F5F898389817A
:100D5000843078F38B818A33C0F58B818033A8F19E
:100D60008D819E81009789F180918000843058F5B3
:100D70008B81882F90E00196DC018B81882F90E099
:100D80000196FC0180818F678C938981882F90E088
:100D9000880F991FFC01EF57FF4F8B81808389815A
:100DA000882F90E0880F991FFC01EE57FF4F8C8130
:100DB0008083ED81FE8189818083809180008F5FB7
:100DC0008093800003C01A8201C01A828A8126960D
:100DD0000FB6F894DEBF0FBECDBFCF91DF9108955F
:100DE000DF93CF9300D00F92CDB7DEB78A836B83AA
:100DF00081E089838A81843008F0B2C08B818A3097
:100E000008F0AEC08A81882F90E0880F991FFC01FE
:100E1000EF57FF4F8081882309F4A0C08A81882F73
:100E200090E0880F991FFC01EE57FF4F80818130C1
:100E300009F042C08A81882F90E0880F991FFC0139
:100E4000EF57FF4F8081882F90E00296DC018A8166
:100E5000882F90E0880F991FFC01EF57FF4F80818A
:100E6000882F90E00296FC01808180788C938A81A3
:100E7000882F90E0880F991FFC01EF57FF4F80816A
:100E8000882F90E00296DC018A81882F90E0880FFD
:100E9000991FFC01EF57FF4F8081882F90E0029649
:100EA000FC0120818B81882F90E0FC01EC59FF4FE1
:100EB0008081822B8C9355C08A81882F90E0880F87
:100EC000991FFC01EE57FF4F8081882309F044C031
:100ED0008A81882F90E0880F991FFC01EF57FF4F00
:100EE0008081882F90E00296DC018A81882F90E033
:100EF000880F991FFC01EF57FF4F8081882F90E0EA
:100F00000296FC0180818F678C938A81882F90E004
:100F1000880F991FFC01EF57FF4F8081882F90E0C9
:100F20000296DC018A81882F90E0880F991FFC01CE
:100F3000EF57FF4F8081882F90E00296FC0180815F
:100F4000282F8B81882F90E0FC01EC59FF4F808186
:100F5000809582238C9305C0198203C0198201C039
:100F6000198289810F900F900F90CF91DF91089592
:100F7000DF93CF9300D0CDB7DEB78A8381E089833A
:100F80008A81843008F0A3C08A81882F90E0880F7E
:100F9000991FFC01EF57FF4F8081882309F495C00A
:100FA0008A81882F90E0880F991FFC01EE57FF4F30
:100FB00080818130E9F58A81882F90E0880F991F20
:100FC000FC01EF57FF4F8081882F90E00296DC01F3
:100FD0008A81882F90E0880F991FFC01EF57FF4FFF
:100FE0008081882F90E00296FC01808180788C932C
:100FF0008A81882F90E0880F991FFC01EF57FF4FDF
:101000008081882F90E00296DC018A81882F90E011
:10101000880F991FFC01EF57FF4F8081882F90E0C8
:101020000296FC01908180916400892B8C9350C0C2
:101030008A81882F90E0880F991FFC01EE57FF4F9F
:101040008081882309F03FC08A81882F90E0880F33
:10105000991FFC01EF57FF4F8081882F90E0029687
:10106000DC018A81882F90E0880F991FFC01EF57DF
:10107000FF4F8081882F90E00296FC0180818F676E
:101080008C938A81882F90E0880F991FFC01EF577D
:10109000FF4F8081882F90E00296DC018A81882FA3
:1010A00090E0880F991FFC01EF57FF4F8081882F38
:1010B00090E00296FC018081982F809164008095D9
:1010C00089238C9305C0198203C0198201C019823B
:1010D00089810F900F90CF91DF910895DF93CF9387
:1010E00000D0CDB7DEB78A8381E089838A818430DE
:1010F00008F074C08A81882F90E0880F991FFC0146
:10110000EF57FF4F8081882309F466C08A81882FBA
:1011100090E0880F991FFC01EE57FF4F80818130CE
:1011200039F58A81882F90E0880F991FFC01EF57CD
:10113000FF4F8081882F90E00296DC018A81882F02
:1011400090E0880F991FFC01EF57FF4F8081882F97
:1011500090E00296FC01808180788C938A81882FB0
:1011600090E0880F991FFC01EF57FF4F108237C0A6
:101170008A81882F90E0880F991FFC01EE57FF4F5E
:101180008081882339F58A81882F90E0880F991F04
:10119000FC01EF57FF4F8081882F90E00296DC0121
:1011A0008A81882F90E0880F991FFC01EF57FF4F2D
:1011B0008081882F90E00296FC0180818F678C935C
:1011C0008A81882F90E0880F991FFC01EF57FF4F0D
:1011D000108205C0198203C0198201C01982898159
:1011E0000F900F90CF91DF91089597FB092E07265E
:1011F0000AD077FD04D02ED006D000201AF47095C6
:1012000061957F4F0895F6F7909581959F4F0895CA
:10121000A1E21A2EAA1BBB1BFD010DC0AA1FBB1FFA
:10122000EE1FFF1FA217B307E407F50720F0A21B6C
:10123000B30BE40BF50B661F771F881F991F1A94D9
:1012400069F760957095809590959B01AC01BD0103
:10125000CF010895AA1BBB1B51E107C0AA1FBB1FEA
:10126000A617B70710F0A61BB70B881F991F5A9532
:10127000A9F780959095BC01CD010895F894FFCF12
:0E12800001000A003F065B4F666D7D077F6F21
:00000001FF
