:1000000029C0000042C0000040C000003EC0000007
:100010001AC100003AC0000038C0000036C000001D
:1000200034C0000032C00000E5C000002EC0000057
:100030002CC000002BC0000028C000003AC0000007
:1000400024C0000022C0000020C000001EC000002C
:100050001CC0000011241FBECFE5D8E0DEBFCDBF1D
:1000600010E0A0E6B0E0E0E7F4E002C005900D92F9
:10007000A036B107D9F710E0A0E6B0E001C01D92AC
:10008000AA36B107E1F7C9D1F1C1BACFDF93CF9357
:10009000CDB7DEB78091600090916100009729F0A4
:1000A000E0916000F091610009957894CF91DF9123
:1000B0000895DF93CF93CDB7DEB780916200909122
:1000C0006300009729F0E0916200F09163000995C8
:1000D0007894CF91DF910895DF93CF9300D000D033
:1000E000CDB7DEB789836A835C834B838A8188239B
:1000F00071F48B819C819093610080936000AAE2EF
:10010000B0E0EAE2F0E0808180688C9310C08A81E0
:10011000813069F48B819C819093630080936200AD
:10012000AAE2B0E0EAE2F0E0808180648C93789407
:100130000F900F900F900F90CF91DF910895DF9364
:10014000CF9300D00F92CDB7DEB789837B836A83CC
:10015000E0E4F0E08A819B81892F99278083E9E29E
:10016000F0E08A818083AAE2B0E0EAE2F0E08081F8
:1001700088618C93A0E4B0E0E0E4F0E080818F7BC4
:100180008C93A0E4B0E0E0E4F0E080818E6B8C938F
:100190000F900F900F90CF91DF910895DF93CF9341
:1001A00000D0CDB7DEB789836A83EBE2F0E08081CF
:1001B000882F90E0807290700097B9F3ECE2F0E045
:1001C0008A8180830F900F90CF91DF910895DF9304
:1001D000CF930F92CDB7DEB704C0ECE2F0E08081A0
:1001E0008983EBE2F0E080818823BCF30F90CF910C
:1001F000DF910895DF93CF930F92CDB7DEB71982C9
:100200001BC08981882F90E0880F991FFC01EA5953
:10021000FF4F80819181009761F08981882F90E064
:10022000880F991FFC01EA59FF4F0190F081E02DE2
:10023000099589818F5F89838981882311F30F90C4
:10024000CF91DF910895DF93CF930F92CDB7DEB7B3
:1002500019821BC08981882F90E0880F991FFC01AB
:10026000E859FF4F80819181009761F08981882F43
:1002700090E0880F991FFC01E859FF4F0190F08131
:10028000E02D099589818F5F89838981882311F306
:100290000F90CF91DF910895DF93CF9300D0CDB72A
:1002A000DEB789836A838981882F90E00196DC011B
:1002B0008981882F90E00196FC0190818A81892BA9
:1002C0008C930F900F90CF91DF910895DF93CF9390
:1002D00000D0CDB7DEB789836A838981882F90E00B
:1002E0000196DC018981882F90E00196FC018081D4
:1002F000982F8A81809589238C930F900F90CF91AE
:10030000DF910895DF93CF9300D00F92CDB7DEB782
:1003100089836A834B838981882F90E00296DC0170
:100320008981882F90E00296FC018081482F8A8184
:10033000282F30E081E090E002C0880F991F2A95B5
:10034000E2F7809584238C938981882F90E0029630
:10035000DC018981882F90E00296FC018081482F82
:100360008B81282F30E08A81882F90E0B90102C06C
:10037000660F771F8A95E2F7CB01842B8C930F9041
:100380000F900F90CF91DF910895DF93CF9300D01E
:10039000CDB7DEB789836A838981882F90E0FC011D
:1003A0008081482F8A81282F30E081E090E0022E62
:1003B00002C0880F991F0A94E2F784230F900F90D0
:1003C000CF91DF910895DF93CF930F92CDB7DEB732
:1003D00086E360E0DADF1982882311F481E0898303
:1003E00086E360E049818EDF0F90CF91DF91089521
:1003F000DF93CF930F92CDB7DEB786E361E0C5DF21
:100400001982882311F481E0898386E361E04981C0
:1004100079DF0F90CF91DF910895DF93CF93CDB720
:10042000DEB780E060E875E28ADE28EF31E080E048
:1004300060E0A90151DE23EE31E080E061E0A90136
:100440004BDE86E363E028DF86E364E03FDFEBE238
:10045000F0E08081882F90E080749070009709F020
:10046000B2DF80E061E69ADEB2DEFBCFF894FFCF28
:00000001FF
