:100000000C942A000C9434000C9434000C943400AA
:100010000C9434000C9434000C9434000C94340090
:100020000C9434000C9434000C9434000C94340080
:100030000C9434000C9434000C9434000C94340070
:100040000C9434000C9434000C9434000C94340060
:100050000C94340011241FBECFE5D8E0DEBFCDBF25
:100060000E9436000C948B000C940000CF93DF9319
:1000700000D01F92CDB7DEB7198281E08A831B8240
:10008000CE0101960E944500FFCFFC01009709F4C4
:1000900041C081818823F1F190819923D9F1628156
:1000A0006623C1F1992319F09230A1F51AC023B744
:1000B000669530E4639FC0011124822B83BF83B710
:1000C0009281492F417050E0440F551F440F551F36
:1000D000440F551F482B43BF93B78181892B83BFA2
:1000E000089545B5669520E4629FC0011124842BD4
:1000F00085BD85B59281292F217030E0220F331FF5
:10010000220F331F220F331F282B25BD95B5818168
:0A011000892B85BD0895F894FFCFF8
:00000001FF
