:100000000C942A000C943C000C943C000C943C0092
:100010000C943C000C943C000C943C000C943C0070
:100020000C943C000C943C000C947F000C943C001D
:100030000C943C000C943C000C943C000C943C0050
:100040000C943C000C943C000C943C000C943C0040
:100050000C943C0011241FBECFE5D8E0DEBFCDBF1D
:1000600020E0A0E6B0E001C01D92A936B207E1F79A
:100070000E9450000C943C010C94000081E08ABB6B
:100080009BB389278BBB089581E087BB98B38927F1
:1000900088BB089581E084BB95B3892785BB08950B
:1000A000CF93DF93CDB7DEB765970FB6F894DEBF79
:1000B0000FBECDBF40E050E065E070E080E00E9400
:1000C00097002EE330E041E064E670E0CE01019657
:1000D0000E94A80024E430E041E062E370E0CE0139
:1000E00008960E94A8002AE430E041E062E370E054
:1000F000CE010F960E94A8000E94EA00FDCFA0E664
:10010000B0E026E630E0ED91FD91309729F0828154
:100110009381019793838283A217B307A1F788B7CE
:10012000816088BF12BE8EE48CBF7894089570936E
:1001300067006093660083E083BF12BE8EE48CBFCD
:1001400082E089BF88B7816088BF789480E0089595
:10015000CF93FC01F894C0916800C330A8F54483A4
:10016000368325832091660030916700CB01B90169
:100170000E9428016083718362837383CF5FC09381
:1001800068008091600090916100892B91F08091CE
:10019000620090916300892B49F0809164009091F6
:1001A0006500892B99F482E090E005C081E090E041
:1001B00002C080E090E0DC01AA0FBB1FA05ABF4F35
:1001C000ED93FC9380E003C082E001C080E078946E
:1001D000CF910895EF92FF920F931F93CF93DF93E8
:1001E000F894C0E6D0E006E610E0E881F9813097A7
:1001F00011F18281938118161906ECF00580F681C1
:10020000E02D80E090E00995E881F98184818111F9
:100210000AC0809168008150809368001682158220
:100220001982188208C02281338180819181820FD6
:10023000931F938382832296C017D107B1F67894D7
:1002400080E0DF91CF911F910F91FF90EF90089583
:10025000AA1BBB1B51E107C0AA1FBB1FA617B707EC
:1002600010F0A61BB70B881F991F5A95A9F7809508
:0C0270009095BC01CD010895F894FFCFDB
:00000001FF
